:400000000080002011000000510300005103000008B5044B1A6803F53F5302331A6000F09FF900BFFA46004010B5054C237833B9044B13B10448AFF300800123237010BD37
:400040004881FF1F0000000080170000084B10B51BB108490848AFF300800848036803B910BD074B002BFBD0BDE81040184700BF000000004C81FF1F80170000C880FF1FD4
:400080000000000010B500F001FA114B1870114A1368013313600F2B05D1134600221A605A6801325A600B4B5B68012B02DD0022084B5A60074B1978187900F02FFB044C4A
:4000C000207800F0CDFA207800F0F6F910BD00BFFC91FF1F6481FF1F08B562B6084800F083FB00F0C5F900F00BFB00F09DFB0021084600F013FB034800F0A4FAFEE700BF57
:4001000085000000B0170000FEE700BFF0B40022174611E050F82760F3B226F0FF0608E001EB420511F812406D78A5550132013BDBB2002BF4D10137162FEBD9F0BC704747
:40014000064B1B78DBB203F00701054A11701B09013213704422034B1A707047CF0100496E5800407658004008B50A46002101F0FEFA08BD38B50024274B1C80582202339D
:400180001A704FF49C7202331A80182202331A70022203F27A231A7008224FF040231A70032103F5007319701C4B1B78DBB21C490B701C4B1A8041F25122023B1A801925CB
:4001C0000CE0194B1B7803F0010343EA440404F003044FF4F07000F017FB013D0DB1032CEFD115B90320FFF78FFF104B4FF480721A8007221A7000220D490A704820023146
:4002000008701A700222033B1A700A4A137843F00303137038BD00BF8040004008010049A146004022420040254200400440004006400040A243004008B501F08DFA08BD94
:4002400038B572B6334A137843F00403137000240CE0314D630019194A0011462A44084691882858FFF780FF0134E4B20A2CF0D900240CE02848A20011194B000344B3F8C3
:400280004C20996C586CFFF7D7FF0134E4B2012CF0D922494FF09040FFF738FF204A137843F0020313701032137843F0020313701C4C237843F040032370A2F58632513AB7
:4002C000137843F010031370082217491748FFF7B3FF082216491748FFF7AEFF0A2216491648FFF7A9FF164A137843F008031370144D61232B70FFF73DFF81232B70012247
:40030000114B1A70FFF71CFF0E2221460F48FFF793FF38BDE8460040BC1700005C00004803500140A04300406C050048C251004074050048125100407C05004830510040C5
:40034000224300400048004004000840B043004008B501F0D5F903680C2B00D1FEE7FEE708B5104E104D16E029686B68AC68002204E051F8040B43F8040B0432A242F8D1A7
:40038000E868002203E0002143F8041B04328242F9D11035013E002EE6D101F0B7F9FFF79BFEFEE701000000A818000008B5104A104B1A60104A136843F400731360002369
:4003C0000AE0032B03D80D4A52F8231000E00C490C4A42F8231001332F2BF2D90A4B1A780A4B1A70074A0A4B1A60FFF729FF08BD0004FA050CED00E014ED00E0000000005F
:40040000510300000080FF1FBC760040C080FF1F08ED00E07222074B1A702022013B1A700622603B1A70472210331A70002253331A7070478565004010B500F0EDF9044632
:400440000A4A137843F020031370013A137843F0100313700332137843F01003137000F07BF9204600F0DCF910BD00BF9565004008B5054B1B7823B9FFF7CCFF0122024BAA
:400480001A70FFF7D9FF08BD6C81FF1F084B1B78DBB213F0200F06D0064A1078C0B213F01E0F02D17047002070470020704700BF6465004045650040034B1B7813F0040F3E
:4004C000FAD1024B18707047676500404765004010B50B4C237803F09F032370237803F0F00323702378184340F010002070012000F056F9237803F0EF03237010BD00BFF5
:40050000C051004038B505460E4C237843F020032370237803F0BF032370002000F040F9237803F0F003237023781D4345F010052570012000F034F9237803F0EF032370E9
:4005400038BD00BFC051004070B5354B1A7802F08002D2B21A7033490A7802F0F00242F00F020A7001310A7802F0F0020A7001310A7802F0F0020A701A7802F0DF021A700B
:400580001A7842F040021A704FF4CA76002000F007F9234D2B7843F010032B70012000F0FFF8214B1C78E4B22B7803F0EF032B70002000F0F5F804F00804E4B22B7843F0FA
:4005C00010032B70012000F0EBF82B7803F0EF032B7014B90A2000F0E3F8013E0CB1002ED4D10F4A137803F0BF031370137803F08003DBB213700232137803F0F003137050
:400600000132137803F0F00343F00F0313700132137803F0F00343F00F03137070BD00BFC0510040C2510040C151004010B50446FFF78AFF2009FFF765FF04F00F00FFF7F6
:4006400061FF10BD38B505460078012404E0FFF7EDFF285D0134E4B20028F8D138BD00BF08B5FFF7E3FF08BD10B50446FFF76CFF2009FFF72DFF04F00F00FFF729FF10BDBA
:4006800008B5282000F076F80320FFF721FF052000F070F80320FFF71BFF0F2000F06AF80320FFF715FF012000F064F80220FFF70FFF052000F05EF80620FFF7D5FF0E2024
:4006C000FFF7D2FF2C20FFF7CFFF0820FFF7CCFF0120FFF7C9FF0C20FFF7C6FF0320FFF7C3FF052000F046F808BD00BF08B50C20FFF7BAFF0122014B1A7008BD6E81FF1F5F
:4007000008B5054B5B7823B9FFF7BAFF0122024B5A70FFF7EBFF08BD6E81FF1F08B5032819D8DFE800F002070D1381F08000FFF79BFF08BDA1F14000C0B2FFF795FF08BDD0
:40074000A1F16C00C0B2FFF78FFF08BDA1F12C00C0B2FFF789FF08BD054A137843F0020313701032137843F002031370704700BFA243004010B5044605E0084B186800F0DE
:4007800043F8A4F50044B4F5004FF6D8034B586800FB04F000F038F810BD00BFCC80FF1F08B5034B1B7A00FB03F000F02DF808BDCC80FF1F014B1B681864704708ED00E09F
:4007C0004001C0B2014B1870704700BF00E400E00122014B1A60704700E100E00122014B1A60704780E100E010B50446FFF7F6FF2046FFF7DFFF0720FFF7E2FFFFF7E8FFE7
:4008000010BD00BF000000000230800803D000BF01380046FCD17047EFF3108072B6704780F31088704700BF38B500F0E9F820B3124C4200E260000100F0D6F8238AA0602C
:40084000E068584300F0D0F8A568E168228A002304E005EBC3046060013380188B42F8D3102000F0C1F8054C6061282000F0BCF8A37CA06143F00203A37438BD0092FF1F0E
:4008800008B5436813B94FF0FF3008BD984708BDF8B5174C064694F85B10E56D69B960220127204600F02AF884F85B70E5653046FFF7E6FF00280EDA18E045B9602000F0EC
:4008C0007DF8E06518B12946602200F017F8E46D002CE0D10AE0074B2660DA6F0132DA670323207184F85B7084F85A302046F8BD1C92FF1F0092FF1FFFF7CABF70B5034650
:4009000002E003F8011C013A1C4622B103F003050133002DF5D193081ED04FF001354D4308E044F8105C44F80C5C44F8085C44F8045C043B032BA44604F11004F1DC1C469E
:40094000002603E04CF80650013B0436002BF9D102F003020CEB8404002302E0E154013A0133002AFAD170BD42780178431C42EA01205A789B7842EA002043EA0020704714
:40098000094A0A4BC11C10B5146821F0030118680919814201D9002010BD11609A685868013220189A6010BD8492FF1F7081FF1F08B5FFF7E5FF00B9FEE708BDFFF7E0BFF9
:4009C00030B1044A9368013B93600BB9024A1360704700BF7081FF1F8492FF1F014B5860196070477081FF1F38B50546FFF7E0FF002104462A46FFF781FF204638BD000066
:400A000010B5084CA37C0BB1002010BD4FF40073238200F009F8A37C012043F00103A37410BD00BF0092FF1F08B54FF480510348FFF7D4FF0248FFF75FFF08BD7C81FF1F5C
:400A40005C1800004FF6FF7070470000014B1868704700BF7C91FF1F004870477C18000000F016BD37B501220DF10701054600F015FD9DF80740FF2C14BF0A2407242846D1
:400A800001220DF1070100F009FD9DF80700FF2803D1013CE4B2002CF1D13EBD37B50469857828460DF10701012200F0F7FC9DF807300BB1002003E0013CF2D14FF0FF30FB
:400AC0003EBD37B54FF0FF3305460C468DF8073006E028460DF10701012200F0EDFC013C002CF6DC3EBD000038B5094C2368032B02DD4FF0FF3509E0DDB201332360142009
:400B0000FFF772FF04EB850460608570284638BD7C91FF1F08B5034B4FF400711B68984708BD00BFDC80FF1F4FEAD20CACEBD103CCF10F0C10B501336044002410F801CB85
:400B4000013B4CEA0424F9D101F00703511A02228A40DC40013A04EA020010BD7FB5130E85788DF80530130C01F03F018DF80630130A41F040018DF8073000238DF8082077
:400B80008DF804101A4601A911F802C000215B00DBB283EA0C0E1EF0800F18BF83F009030131082904D04FEA4C0C5FFA8CFCEEE70132052AE7D15B0043F001038DF809305C
:400BC0008678C4680122304603A900F067FC9DF80C30FF2B04D00CB9FF2009E0013CF1E7284601A9062200F067FC2846FFF73AFF04B070BDF7B5847806460F4620460121A0
:400C0000FFF75FFF204600F0E5FB304609210022FFF7A4FF8DF8070028BBF6680546012220460DF1060100F039FC9DF80630FE2B06D0FC2B04D00135ADB2B542EFD112E001
:400C40000DF1070520463946102200F027FC29462046012200F022FC29462046012200F01DFC002500E0FF25204600F0BDFB20460121FFF726FF2846FEBD00002DE9F04FE1
:400C80009B46494B89B003EB800305925C684A02029103924FF00309029AA578E678039B2846022E08BF13461E4600F09DFB01212846FFF706FFBBF1010F0CBF4FF0110A30
:400CC0004FF0120A284600F085FB204651463246FFF744FF002851D1059F5E46A378E268B44604924FF000081E460FE0012230460DF11F01CDF804C000F0D0FB9DF81F201D
:400D0000DDF804C0FE2A05D008F10108049B9845ECD333E0284639464FF40072664600F0BDFB0222284607A900F0B8FB9DF81C30384601939DF81D80FFF7ECFE4FF6FF7237
:400D40009042019B0CD048EA0328404508D0BAF1120F13D120460C210022FFF7FFFE0DE0013E02D007F50077B8E7BAF1120F07D120460C213246FFF7F1FE01E04FF0FF361E
:400D8000284600F031FB28460121FFF79AFE3EB1B9F1000F02D009F1FF397DE74FF0FF36304609B0BDE8F08F7C91FF1F2DE9F04F99464C4B87B0029203EB80039DF840208D
:400DC0005D68009103926B78002B40F085804B0201930327009BAC78EE78019A2046022E08BF1A46164600F0FFFA01212046FFF768FEB9F1010F0CBF4FF0180A4FF0190ACC
:400E0000204600F0E7FA284651463246FFF7A6FE8DF81700002850D120460121FFF751FE029ECB46B8463046FFF774FE0DF11707BAF1180F0CBFFE23FC2301228DF817303D
:400E40008DF81500030A394620468DF8143000F033FB204631464FF4007200F02DFB0222204605A900F028FB01222046394600F015FB9DF8173003F01F03052B1CD1284686
:400E8000FFF70CFEC0B9039A0AB906F50076BBF1010BC8D1BAF1190F474611D106A96FF00203204601F8013D012200F005FB2846FFF7F4FD20B100E047464FF0FF3600E0AB
:400EC0000026204600F090FA20460121FFF7F9FD26B10FB1013F7DE74FF0FF36304607B0BDE8F08F7C91FF1F2DE9F04F877887B0044638460D4600F06DFA20463A2100226D
:400F0000FFF72CFE064638B1384600F06DFA38460121FFF7D6FD58E00DF1140804224146384600F0BBFA4046FFF71EFD8046384600F05AFA01213846FFF7C3FDB8F1000FCF
:400F400028F07F02B8BF4FEA987BD2B240F272634FEA1828B8BF0BF0010B1FFA88F8002A14BF1A460022012111EA080F05D10136F6B24900102E89B2F6D140F27260824241
:400F800033460DD06422724302F5FA6208E011EA080F07D049000133013689B2DBB2F6B20F2EF4D964214B434FF6FE7103F5FA6302EA01014FF6FC72384603EA020200F032
:400FC00049FA10F0FF0F40F099804FF0FF3092E028467E217F22FFF7A7FD8246EB78DFF82C8103F0030203F0780308EBD30358F822101B7C3846594389B200F001FA0646AC
:40100000002877D06B7803F00702DB1003F00F0308EB82024344126A93F810800292B8F1000F67D0A978284603911C221A21FFF77BFD0190BAF1000F1FD1502153222846C1
:40104000FFF772FD4FF0010909FA00F92F2131222846FFF769FD1FFA89F982463E21284649224FEA5929FFF75FFD0AF1020A09FA0AF9013000FB09F910E0BAF1010F01D0FA
:40108000012038E0284630214522FFF74DFD4FEA8029BBF1000F01D00223E37008FB06F2029B0399B2FBF3F2642303FB01225A437343D208DB089A4294BFE260E360FA235C
:4010C0005E43019BF6089A400C21B24294BF2261266128460D22FFF727FD0546384600F08DF94FF4007128436070A180C4F80890002000E0FF2007B0BDE8F08FE378A7788F
:40110000012B3FF465AF4FF0000A67E714180000F0B5857887B004464FF4C871284600F06FF9B0F5C87F00F2CC804CF25033E3600026284600F058F90A212846FFF7C1FCC5
:40114000624B93E8030001902846ADF8081000F041F9062201A9284600F0AEF92846FFF781FC0746284600F03FF901212846FFF7A8FC17F0010F03D10136052ED9D1A0E01A
:40118000284600F027F9082120464FF4D572FFF7E5FC10F0040F52D0284600F025F9A5784FF4FA66284600F015F9002237212046FFF7D4FC28460121FFF783FC29210022CD
:4011C0002046FFF7CBFC0746284600F00DF928460121FFF776FC17B90123E3701EE017F0040F01D1013EDDD14FF4FA66284600F0F1F8012100222046FFF7B0FC0746284614
:4012000000F0F2F828460121FFF75BFC0FB9E77004E0012F55D1013EE8D152E001AD20462946FFF7E7FC00284BD120462946FFF75BFEC0B2002844D10123237043E0042201
:40124000A07805A900F02AF9284600F0CDF89DF81730AA2B35D19DF8163003F00F03012B2FD1A5784FF4FA66284600F0B3F8002237212046FFF772FC28460121FFF721FCFF
:4012800029214FF080422046FFF768FC0746284600F0AAF828460121FFF713FC0FB1013EE2D101AE20463146FFF7A4FC48B90125E57020463146FFF717FEC0B208B9257041
:4012C00001E04FF0FF3007B0F0BD00BF5418000010B5084B03EB80035C6823783BB9FFF7BFFB20B12046BDE81040FFF711BF4FF0FF3010BD7C91FF1F38B51D46154BA1F5E6
:401300007B7103EB80035C68072918D8DFE801F00A17171704041719204600211422FFF7EDFA0CE0237833B92046FFF7F1FE10B14FF0FF3038BDA3882B81A3686B600020E4
:4013400038BD2046FFF73CFB024B00201A68013A1A6038BD7C91FF1F10B580B9104B1B78EBB901240E4B1C7000F036F921463B2000F04EF900F022F900F012F910BD084B49
:401380001B7863B90124064B1C7000F025F921463B2000F03DF900F011F900F001F910BD9091FF1F08B550B9084600F0B5F800F0A7F810F0010FFAD000F0BAF808BD0846C7
:4013C00000F0AAF800F09CF810F0010FFAD000F0AFF808BD08B510B900F086F908BD002000F082F908BD00BF08B518B9012000F07BF908BD012000F077F908BD00207047E3
:4014000038B5B1F5C87F04D30D46B1F5FA7F03D804E04FF4C87501E04FF4FA756C00A4B245F6C053B3FBF4F448B900F0D5F8601E012180B200F0ECF800F0C0F808E000F02D
:40144000CBF8601E012180B200F0E2F800F0B6F8284638BD032809D840F6E44399420FD840F6E3439A420DD80020704740F6E443994209D840F6E3439A4207D800207047E6
:401480000020704701207047002070470120704708B5FFF761FF022008BD00BFF8B507460D4614466E1CFF213846FFF77BFF28703546013CF6D1F8BD70B5064614464D1CD6
:4014C00009783046FFF76EFF2946013CF7D170BD08B5FFF7A1F9094A137843F020031370013A137843F0100313700232137843F010031370FFF794F908BD00BF9564004096
:40150000014B1878704700BF64640040014B1878704700BF66640040034B1B7813F0040FFAD0024B187070476464004047640040014B1878704700BF5764004008B501E0CA
:401540000A4B1B780A4B1B7813F0200FF8D1FFF763F9084B1A7842F001021A701A7802F0FE021A70FFF75CF908BD00BF57640040666400409764004008B50F22064B1A70C4
:40158000FFF7DCFFFFF7BCFFFFF7C0FF0023034A13700232137008BD856400408464004008B5054B1B7823B9FFF7E6FF0122024B1A70FFF78DFF08BD9191FF1F054A137882
:4015C00043F0010313701032137843F001031370704700BFA2430040054A137803F0FE0313701032137803F0FE031370704700BFA2430040014B188880B27047804000400A
:40160000024B187800F00700704700BF8240004070B505460E46FFF7F3FF0446FFF7EAFFA84256D02B4B1B7803F0010294B900B185B938B9284B1D80284A137803F0BF038B
:40164000137070BD254A137843F040031370224B1D8070BD22B3002321490B7001240F310C7004310B700C390B7803F07F030B701A4B1B7813F0080F00D08DB9194B188046
:401680000721013B1970164B1B7813F0010FFAD110490B7803F0FE030B700021104B19700C4B1B7813F0010F0DD00E4B1D800EB1032200E001220A4B1A70094B1B7813F09B
:4016C000010FFAD170BD044B1D8002490B7813430B7070BDA243004080400040824000400140004002400040044A137803F0EF03000100F01000184310707047105100400E
:40170000014B1868704700BF4081FF1F0E4B70B51E460E4C0025E41AA410A54204D056F8253098470135F8E700F0ACF8084B094C1E46E41AA4100025A54204D056F825304E
:4017400098470135F8E770BD9018000090180000901800009818000010B5431E0A44914204D011F8014B03F8014FF8E710BD03460244934202D003F8011BFAE77047000054
:4017800000000000610000006461746F732E747874000000536920657363726962696F004E6F20657363726962696F007200000043426C7565746F6F7468000000510040CA
:4017C0001000205100401000405100403000F0510040100000000140800600070140000900140140800000150140000700400140000A004C01400002005001402000000071
:40180000800601406C040048800080140140EC04004880000A00000064000000E803000010270000000A0C0D0F14191E23282D32373C41508096980040420F00A0860100FB
:4018400010270000E8030000640000000A000000010000004000000000950000590A0000E90A00007D0C0000AD0D0000F9120000D1120000610A00004D0A00006D6D63007C
:4018800043000000F8B500BFF8BC08BC9E4670474D000000AD030000F8B500BFF8BC08BC9E46704729000000B8180000C880FF1F8000000040110000000000000000E02EAC
:4018C000C05D00001800000000366E01450A000000000000000000000000000000000000000000000000000000000000000000008018000000000000000000000000000027
:40190000000000000000000000000000000000000000000000000000000000000000000000000000000000000000000000000000E080FF1F00000000000000000000000029
:401940000000000000000000000000000000000000000000000000000000000000000000000000000000000000000000000000000000000000000000000000000000000067
:401980000000000000000000000000000000000000000000000000000000000000000000000000000000000000000000000000000000000000000000000000000000000027
:4019C00000000000000000000000000000000000000000000000000000000000000000000000000000000000000000000000000000000000000000000000000000000000E7
:401A000000000000000000000000000000000000000000000000000000000000000000000000000000000000000000000000000000000000000000000000000000000000A6
:020000040003F7
:0200000480007A
:40000000045200400164004003650040470401402E0501401D0601403E070140010901402A1401404D1501405A16014038170140021901400240014001410140014201405F
:400040000143014002470140034801400A4901400B4C014004500140015101400820096018021C01850F84388572870F01010501069F087F09040A800D010EFF1080114025
:40008000150716601718181F19101A201C901D011E4020C02101220224C02540260428C029222A082B082CC02D082E012F21313F32FF33403708390A3E043F4154095804DB
:4000C00059045B045F01803282448402860D88118A628C8D9452962898409A309C8DA00DA280A48DA88DB20FB470B680BA28BE40D602D728D804DB04DF010220030A05254B
:40010000070209480A480C800E281080111412011514170119081D041E0B1F102010210A224029082B8A3020314232043892390458085A815B20618067206C816D976F95F8
:40014000754076017702C0F7C2EFC47FCA0FCC0FCE0FD60FD848006902060404064008E70A080C860E101210140116AE1C8220962410268628922A042C96300F32E03410BB
:40018000360138023A0C3E50544058045B045F0100040102030604080521070109090A020EA00F02118412041322150116011714188419221A4A1B811D891E201F1A2002D6
:4001C000211429012B0830203204338039284004430A4A454B0A502452A4672A8E049105948096489A019B179C089D219F20A141A201A420A580A630A70AC0FFC2BDC4FFE5
:40020000CA05CC0ECE06D007D20CD870E240046106960B010C610E8E145C16831A1C1F0122A3246026802A08301A320F34F037013A2A3F404004470449FF4A074BFF4C40C4
:400240004D204EF04F05500854185604580459045A045B045C015D115F01604061A86240632000400320042005040A240E010F20108812201540170418C01A201B241D2628
:400280001E011F0A2280261E27412C202E012F0A3340364437903A203C083D803E023F204101452347804E0A5088510856A05B015E206110628063806C106D406F04742412
:4002C000758076027720835091029204948099109B109D809E809F20A140A260A4A0A509A60CA734B010B220C065C2A6C4AECAF0CC78CEF4D0B1D230D621D80D0202032360
:40030000051C072209040B400D1C0E020F211001130415271718180119181D3F1E0125082A012D103140331F34023601373838803A023B883E10580459045C115F018140DA
:400340008430860C87038B208D38902C921193059410950698099A109B019C809E039F28A040A414A538A81CA910AA22AB20B080B118B340B460B507B61FB720B820B90218
:40038000BE01BF45C021C105C5EBC6C0C80BC9FFCAFFCBFFCEF0CF44D00CD401D804D904DA04DB04DC01DD11DF01E6C0EA40EB0203200540068009080A050B400D800E8893
:4003C0001084130417101A451D501E802101225425C42601271028042B242C202D8030803210334A3649372038A43B423D8A3F20436049024B4650105220581059025A88B4
:4004000082408E109004A30AA808AA80B001C094C2DFC44ECA56CCFFCEFFD00CD208D60FE040E8803310CC109F109F109F108E04E20282209F10E2200220562082208310EC
:400440009A209F10C010D440E220E4800E08602066028E029820A604B020C201D803E002E80100010A0110031A03000324001000110062EC10000C0121009E001C000000D6
:4004800070210F0200000012C0E000001C04004314000800088800030C0010003000000F0F10C1E080000200000000404302500006DFBE0C1FFFFFFF2200F008040000007B
:4004C0000000000004040400000000010000C00040011011C0010011400140010000000000000000000000000000000000080000440C3100E7210000008F007000000000E9
:4005000022F3510C009C006301FF0E0000630000E70400000042000080000073801C600F188007600000000800001010640105000200CE000CFFFFFF62A0F0410C00000005
:400540000000021104040404111100010000000000004002001030100010101200000000000000000000000000000000007F7F0000000000807B7B00600000000200010298
:400580000200020000000000000000000000000000000000000000000000000000000000000000000000000000000000000000000000000000000000000000000000000037
:4005C00000000000000000000000000000000000000000000000000000000000000000000000000000000000000000000000000000000000000000000000000000000000FB
:4006000000000000000000000000000000000000000000000000000000000000000000000000000000000000000000000000000000000000000000000000000000000000BA
:40064000000000000000000000000000000000000000000000000000000000000000000000000000000000000000000000000000000000000000000000000000000000007A
:40068000000000000000000000000000000000000000000000000000000000000000000000000000000000000000000000000000000000000000000000000000000000003A
:0200000490006A
:0400000000004005B7
:0200000490105A
:04000000BC90ACAF55
:0200000490303A
:02000000129C50
:0200000490402A
:4000000000000000000000000000000000000000000000000000000000000000000000000000000000000000000000000000000000000000000000000000000000000000C0
:400040000000000000000000000000000000000000000000000000000000000000000000000000000000000000000000000000000000000000000000000000000000000080
:400080000000000000000000000000000000000000000000000000000000000000000000000000000000000000000000000000000000000000000000000000000000000040
:4000C0000000000000000000000000000000000000000000000000000000000000000000000000000000000000000000000000000000000000000000000000000000000000
:0200000490501A
:0C00000000012E16106900012E212305BE
:00000001FF