:400000000080002011000000D5070000D507000008B5044B1A6803F53F5302331A6000F0F9FB00BFFA46004010B5054C237833B9044B13B10448AFF300800123237010BDCB
:400040006881FF1F00000000E4440000084B10B51BB108490848AFF300800848036803B910BD074B002BFBD0BDE81040184700BF000000006C81FF1FE4440000C880FF1F72
:400080000000000070B5064600240DE01B4D22461B49284603F0FAFD1A49284601F0E2F8194B18600134E4B2174B1B68002BEDD11649124801F0D6F8134B1860D0B126B973
:4000C0000222134901F0F6F90AE0012E04D10222104901F0EFF903E002220F4901F0EAF9094C03220D49206801F0E4F9206800F0F3FF70BD0A4800F011FD70BDCC80FF1F85
:40010000F8440000044500009492FF1F08450000E8440000EC440000F0440000F44400000C45000010B500F00BFC484BD873DB7B643B102B77D8DFE803F073761176767661
:40014000427676097676767676760D000122404B1A7010BD0020FFF795FF10BD3D4B1A783A4B1A8201230BE03A4AD25C3748018A01EB81014C00224412B202820133DBB2CC
:40018000334A527852B29A42EEDC0B21012000F02DFD2E4C208A80B200F046FD2C49002048704880638A1BB2C3EB03139A00238A1BB292FBF3F212B2A282087010BD254BA8
:4001C0001A78224B5A8201230BE0224AD25C1F48418A01EB81014C00224412B242820133DBB21B4A527852B29A42EEDC0B21002000F0FCFC154C608A80B200F015FD1449F7
:40020000002048704880638A1BB2C3EB03139A00238A1BB292FBF3F212B2A282087010BD0A4801F035F80A4B1B7813F0FF0F0CD0074A53785BB20549C97B30390548C15422
:4002400053785BB201335BB2537010BDCC80FF1F8481FF1FBC91FF1FF8B562B6864800F08BFD00F05FFB00F0B3FC00F0D9FE00F047FE0021084600F0B9FC804800F04EFCD7
:400280000021012000F0B2FC7D4800F047FC7D4800F078FB7C4C204600F074FB7B4800F071FB204600F06EFB794800F06BFB204600F068FB774800F065FB204600F062FB41
:4002C000754800F05FFB204600F05CFB734800F059FB204600F056FB714800F053FB204600F050FB6F4800F04DFB204600F04AFB6D4800F047FB204600F044FB6B4800F063
:4003000041FB204600F03EFB694800F03BFB204600F038FB674800F035FB204600F032FB654800F02FFB204600F02CFB634800F029FB204600F026FB614800F023FB2046A9
:4003400000F020FB5F4800F01DFB204600F01AFB5D4800F017FB204600F014FB5B4800F011FB204600F00EFB594800F00BFB204600F008FB574800F005FB204600F002FB7C
:40038000554800F0FFFA204600F0FCFA534800F0F9FA204600F0F6FA514BDB7BDBB2742BFAD14F4B9A8A12B24E4B5B881BB29A424BD04B4D2B8A1BB240F2E33000FB03F0AF
:4003C00000F074FC00F0AAFD002000F0B3FD00F0C3FD642303FB00F0434C84FB00340444C017C0EBE41424B23E4F7B883F4E1BB222463F49304603F049FC304600F0C2FA9D
:400400007B881BB222463B49304603F03FFC3A49284600F027FF0446384B186040B1304603F058FC02463146204601F043F802E0334800F073FB314B186800F04DFE294AAC
:40044000538801331BB25380A6E7012000F074FB2C4800F063FB0021012000F0C7FB2A4800F05CFB1E4C204600F058FB00221D4B5A803123E3738FE7250100001C45000033
:400480002C4500003C45000044450000484500005845000070450000A0450000CC45000000460000184600003046000048460000604600007846000090460000A84600001C
:4004C0000C47000074470000DC470000F4470000104800002C4800004448000018450000CC80FF1F8481FF1F818080808C92FF1F4C48000058480000084500009492FF1F4C
:4005000060480000684800007C480000FEE700BFF0B40022174611E050F82760F3B226F0FF0608E001EB420511F812406D78A5550132013BDBB2002BF4D10137162FEBD9D6
:40054000F0BC704708B50A46002103F096FB08BDF8B5164B1B78DBB2154E3478E4B2154F3D78EDB203F00701134A11701B090132137044F00303337045F003033B7004227A
:400580000E4B1A7040230E4A13700232137002F21D22137020220B4B1A700A2000F09CFB3D7034704422084B1A70F8BDCF010049F8460040F94600406E5800403D510040A7
:4005C000095900402B5B00407658004008B503F049FB08BD38B500242F4B1C80582202331A704FF49C7202331A80182202331A7004222A492A48FFF7E9FF0222294B1A7048
:4006000008224FF040231A70032103F500731970254B1B78DBB225490B70254B1A8041F25122023B1A8019250CE0224B1B7803F0010343EA440404F003044FF4F07000F028
:40064000A3FC013D0DB1032CEFD115B90320FFF75DFF194B4FF480721A8007221A70002216490A704820023108701A700222033B1A7004220A331A70114A137843F0030337
:400680001370013A137843F001031370013A137843F08003137038BD80400040B4060048004100400043004008010049A1460040224200402542004004400040064000406F
:4006C000A243004038B572B6334A137843F00403137000240CE0314D630019194A0011462A44084691882858FFF72CFF0134E4B2092CF0D900240BE02849A3001819420062
:4007000088188022016CC06BFFF760FF0134E4B2002CF1D022494FF09040FFF7F9FE214A137843F0020313701032137843F0020313701D4C237843F040032370A2F58632D6
:40074000513A137843F010031370082217491848FFF73CFF082217491748FFF737FF0A2216491748FFF732FF164A137843F008031370154D61232B70FFF72CFF81232B70CC
:400780000122124B1A70FFF7E3FE0E2221461048FFF71CFF38BD00BFE8460040844800005C00004803500140A043004098060048C2510040A006004812510040A80600484F
:4007C00030510040224300400048004004000840B043004008B503F019FA03680C2B00D1FEE7FEE708B5094B1A681044084BC31A802B02DC054B186005E003F007FA0C231C
:4008000003604FF0FF32104608BD00BFE480FF1F3093FF1F08B5104E104D16E029686B68AC68002204E051F8040B43F8040B0432A242F8D1E868002203E0002143F8041B67
:4008400004328242F9D11035013E002EE6D103F0E3F9FFF701FDFEE701000000504A000008B5104A104B1A60104A136843F40073136000230AE0032B03D80D4A52F8231040
:4008800000E00C490C4A42F8231001332F2BF2D90A4B1A780A4B1A70074A0A4B1A60FFF711FF08BD0004FA050CED00E014ED00E000000000D50700000080FF1FBC7600408D
:4008C000C080FF1F08ED00E07222074B1A702022023B1A700622623B1A70472210331A700022AD3B1A7070478865004010B500F053FB04460A4A137843F020031370023A0E
:40090000137843F010031370FF3A137843F01003137000F0BBF9204600F042FB10BD00BF9865004008B5054B1B7823B9FFF7CCFF0122024B1A70FFF7D9FF08BD8881FF1FE5
:40094000084B1B78DBB213F0200F06D0064A1078C0B213F01E0F02D17047002070470020704700BF6665004046650040034B1B7813F0040FFAD1024B18707047676400403C
:400980004764004038B5074B1B782BB938BDFFF7EDFF0134A4B201E005460024285D0028F5D138BD8881FF1F10B50B4C237803F09F032370237803F0F0032370237818436C
:4009C00040F010002070012000F086F9237803F0EF03237010BD00BFC051004038B505460E4C237843F020032370237803F0BF032370002000F070F9237803F0F003237021
:400A000023781D4345F010052570012000F064F9237803F0EF03237038BD00BFC051004070B5354B1A7802F08002D2B21A7033490A7802F0F00242F00F020A7001310A784A
:400A400002F0F0020A7001310A7802F0F0020A701A7802F0DF021A701A7842F040021A704FF4CA76002000F037F9234D2B7843F010032B70012000F02FF9214B1C78E4B201
:400A80002B7803F0EF032B70002000F025F904F00804E4B22B7843F010032B70012000F01BF92B7803F0EF032B7014B90A2000F013F9013E0CB1002ED4D10F4A137803F0EA
:400AC000BF031370137803F08003DBB213700232137803F0F00313700132137803F0F00343F00F0313700132137803F0F00343F00F03137070BD00BFC0510040C251004010
:400B0000C151004010B50446FFF78AFF2009FFF765FF04F00F00FFF761FF10BD38B505460078012404E0FFF7EDFF285D0134E4B20028F8D138BD00BF10B50446FFF770FF28
:400B40002009FFF731FF04F00F00FFF72DFF10BD08B5282000F0AAF80320FFF725FF052000F0A4F80320FFF71FFF0F2000F09EF80320FFF719FF012000F098F80220FFF7D9
:400B800013FF052000F092F80620FFF7D5FF0E20FFF7D2FF2C20FFF7CFFF0820FFF7CCFF0120FFF7C9FF0C20FFF7C6FF0320FFF7C3FF052000F07AF808BD00BF08B50C2011
:400BC000FFF7BAFF0122014B1A7008BD8A81FF1F08B5054B5B7823B9FFF7BAFF0122024B5A70FFF7EBFF08BD8A81FF1F08B5032819D8DFE800F002070D1381F08000FFF74C
:400C00009BFF08BDA1F14000C0B2FFF795FF08BDA1F16C00C0B2FFF78FFF08BDA1F12C00C0B2FFF789FF08BD10B584B000238DF80E30092211E0144BA3FB0013DB081C4646
:400C400003EB83035900431ADBB2303304A9114401F80C3C2046013AD2B20928EBD80A4BA3FB0013DB0803EB83035900431ADBB2303304A9114401F80C3C01AB9818FFF766
:400C80004DFF04B010BD00BFCDCCCCCC054A137843F0020313701032137843F002031370704700BFA243004001BE704710B5044605E0084B186800F067F9A4F50044B4F5AC
:400CC000004FF6D8034B586800FB04F000F05CF910BD00BFE880FF1F08B5034B1B7A00FB03F000F051F908BDE880FF1F70B504460E46074B1D681F2802D90020FFF7D4FFCB
:400D000004F01F04103455F8240045F8246070BD08ED00E038B504460D46072902D90020FFF7C2FF1F2C02D90020FFF7BDFF04F01F0000F1604000F564406D01EDB2057001
:400D400038BD00BF014B1B685864704708ED00E04001C0B2014B1870704700BF01E400E00222014B1A60704700E100E00222014B1A60704780E100E010B50446FFF7F6FFA8
:400D80002046FFF7DFFF0720FFF7E2FFFFF7E8FF10BD00BF08B50A280FD00C2802D0082806D102E04FF4805209E04FF4807206E00020FFF779FF002201E04FF480620021E5
:400DC000094B198042F2107303FB02F303F6C413064A82FB0302DB17C3EBE223044A1360044B198008BD00BF9E92FF1FAD8BDB689892FF1F9C92FF1F10B500F0CDF80446C7
:400E00001E4A137843F0020313701032137843F0020313701A3A137843F0010313701032137843F00103137002F5AA521A32137843F0030313701822114B1A70013B1A78E8
:400E400042F040021A701A7802F0FC021A70CE22053B1A700222A3F59753123B1A70094A137843F0080313700A20FFF735FF0122054B1A60204600F093F810BDAB43004075
:400E80000E5900402F5B004080E200E010B504460A280DD00C2802D0082804D101E0C22207E0422205E00020FFF7FEFEC22200E08222034B1A702046FFF76CFF10BD00BFBC
:400EC0000A59004008B5102000F054F807210020FFF720FF07490020FFF708FF064A137843F0060313700820FFF7D0FF0022034B1A8008BD710F000009590040A092FF1F94
:400F000008B5054B1B7823B9FFF7DCFF0122024B1A70FFF771FF08BD8C81FF1F044B1A7802F0FB021A701A7842F001021A7070470859004010B5074B1B7813F0010401D18D
:400F40000028F8D024B10120FFF7C6FE014B1B78204610BD09590040034B1B78034A108800B2181A40B27047A25B00409C92FF1F704700BF034B1A7800F0F8001043187028
:400F8000704700BF024100400230800803D000BF01380046FCD17047EFF3108072B6704780F31088704700BF094B10B5D8689A68002308E0114652F8084B1CB901230B6059
:400FC000486810BD01338342F4D3002010BD00BFA492FF1F084B30B50022DC689B6808E05D6819460833854202D100230B6030BD0132A242F4D330BDA492FF1F01230373FE
:40100000704700230373704710B1002282720260704718B1027B0AB1013A02737047000038B501F083FD20B3124C4200E260000101F070FD238AA060E068584301F06AFDF7
:40104000A568E168228A002304E005EBC3046060013380188B42F8D3102001F05BFD054C6061282001F056FDA37CA06143F00203A37438BDA492FF1F38B510220D4600212A
:40108000044601F079FCFFF78FFF08B9013038BDA0604FF0FF33002065602360A07338BD38B5837A044643B1056801F04FFB2846FFF7AFFF2046FFF7A7FF002038BD08B57E
:4010C0000368827A03B19B6822B11BB1FFF7E8FF002008BD012008BD08B901307047FFF7EEBF000038B5104B9C69217B59B921606160A16004F11000142201F03DFC237BFE
:40110000013323730DE0656A45B9282001F0ECFC606218B12946282201F02EFC646A002CE3D1204638BD00BFA492FF1F38B50E4B5C69A17AE56839B92046102201F01CFC89
:401140000123A372E5600CE045B9102001F0CCFCE06018B12946102201F00EFCE468002CE7D1204638BD00BFA492FF1F2DE9F74F06460020884691469B469DF830A09DF893
:401180003470FFF7AFFF054608B9044610E0FFF7CDFF044660B180F80B900560AE604046214652463B46CDF800B001F003F930B12046FFF729FF2846FFF72BFF0024204619
:4011C000BDE8FE8F2DE9FF410C461F4604A9002341F8043D15469DF8286000F0BBF88046B8B1039B0BB11B789BB1404600F03BF900280EDD14F0150F01D0032809D103998C
:4012000039B1404622462B4600970196FFF7AEFF00E0002004B0BDE8F08100002DE9F3410646884600240E4D404655F83410E70001F0D8FB10B9002C04DA0DE001340F2CF5
:40124000F1D109E07D19A87929790090EA796B793046FFF7B7FF00E00020BDE8FC8100BFCC480000FFF7DABF37B500241021224601230094FFF7A6FF054608B9013806E0C6
:401280000068FFF7C6FE2846FFF7BEFE20463EBDFFF7EABF10B5437B04460BB1012010BD40682168A268A37B01F007FD10B10120607310BD207310BD10B5437B044663B95C
:4012C000037B53B140682168A268A37B01F0F5FC08B1012363730023237310BD036870B5994204460D46164607D0037B0BB1FFF7E3FF00232560A673E37370BDFFF7DCBFD6
:4013000010B50446FFF7D8FFA068BDE81040FFF761BE01230373FFF7CFBF10B50446407B08B1012010BDE37B5BB960682168A268A37B01F05CFC10B10120607310BD012257
:40134000E27310BD08B5436813B94FF0FF3008BD984708BD2DE9F0470F463A21064601F070FB044610B93446174D27E00378C6EB000A5BB114F8013F43B162783A2A05D10D
:40138000A3F130085FFA88F8023401E04FF000080D4D2B6828791B689847814601F02FFB504508D148463146524601F030FB10B92B79434502D0ED6D002DEAD107B13C60D4
:4013C0002846BDE8F08700BFC092FF1FF8B5174C064694F85B10E56D69B960220127204601F0CAFA84F85B70E5653046FFF7AAFF00280EDA18E045B9602001F075FBE065D6
:4014000018B12946602201F0B7FAE46D002CE0D10AE0074B2660DA6F0132DA670323207184F85B7084F85A302046F8BDC092FF1FA492FF1FFFF7CABF38B504460D4601F0C6
:40144000A4FB08B9013838BD204601F0B1FB204601F04AFD204600F0D7FC08B184F8595094F8590038BD90F8593023B990F85A1009B1FFF7E1BF1846704730B51346BAB16F
:40148000B0B10268857A0AB1946804B900247DB172B16CB1C27A12F0100204D14FF6FA730381104630BD1A46BDE8304001F070B9002030BDFFF7E1BF0C2802D0102805D178
:4014C00002E001EB510070474800704788007047036840689B685B6AB0FBF3F0704710B5046D836CE4B199421AD3E318994217D2013B99420CBF4FF0FF31013172B190F849
:4015000036300C2B02D0102B05D102E00905090D03E089B201E021F070411160012010BD002010BD40F6F473984201D80C2070474FF6F473984294BF102020207047027F64
:401540008368023902FB01307047431EDBB21F2B13D92F2811D007D826280ED002D8222809D10AE02A3804E03A2804D33F2804D95B38022801D901207047002070470346BF
:4015800038B30B2A01DD0B2200E0013A00201CE0082809D191F808C0BCF1200F0DD04FF02E0C03F801CB08E038B991F800C0BCF1050F02D1ACF1200C04E011F800C0BCF19C
:4015C000200F01D003F801CB01309042E0DB00221A7070472DE9F04788B005AE04460D463046114600229A469DF84490BDF84C80BDF8507000F01EFD08B1002413E02046BF
:401600002946524600F00FFE044660B1129B31460093109A4B46CDF80480029700F0C6FF2846FFF7EBFC204608B0BDE8F08710B59DF80C400394BDE8104000F0D9BD000085
:401640002DE9F04F144E87B0109DDDF848809DF84440376800950194CDF8088005937F68934682468946B84732680C4BDDF814C09A420DD060B9504649465A466346109596
:401680001194CDF8488007B0BDE8F04FFFF7CFBF07B0BDE8F08F00BFF880FF1F7449000070B5C37A04460B7010300D4601F0F8F9064604F10E0001F0F3F940EA06406860EC
:4016C00004F1120001F0ECF90004A86004F1180001F0E6F9064604F1160001F0E1F940EA0640E86004F11C0001F0C1F9286170BD2DE9F845038A04460E46924687692BB9AE
:4017000007F118002146626900F064FC38465146224600F0E7FC0546204600F065FCD5B12B78C3B1E52BF1D095F80B80B8F10F0FECD018F00808E9D170692946B269FFF791
:401740001EFF28463146FFF7ABFF238A404601332382BDE8F8854FF0FF30BDE8F8850222FFF7BCBD2DE9F04790F8366005460C46304611469146FFF79FFEB5F81E80AB6AD7
:4017800020FA08F89845824602D30020BDE8F0876B8E05F118079844204641463A46FFF7DEFF2046FFF7B9FD18B14FF0FF30BDE8F087AA8BA168013A0AEA020A1FFA8AFAB4
:4017C00092450AEB01031AF8015001D0013309E0204608F101013A46FFF7C1FF2046FFF79CFDA36818780C2E45EA002009D0202E0FD15D7840EA05409D7840EA0560BDE884
:40180000F08719F0010F02D00009BDE8F0870005000DBDE8F08700002DE9F34190F83630144603FB02F7828B8846D200511E0F40D71B0546B7FBF3F7002618E00E4B93F824
:401840008030022B05D12846214601AAFFF747FE28B9284641462246FFF784FF0190019B0134A34205D10136B6B2013F1C46002FE4DC3046BDE8FC81A492FF1F2DE9F341C0
:4018800005460E46144698461F681CE0114B93F88030022B05D12846214601AAFFF71FFE28B9284631462246FFF75CFF0190737B0BB100240BE0AA6B019B0132934204D843
:4018C0001BB1013F1C46002FE0D1C8F800702046BDE8FC81A492FF1F73B504680E4623681BB9FFF7F5FD013039E0FFF7F1FD236998423CBF4FF0FF3323612369B3F1FF3F6D
:4019000004D12268013323616261E3832169E28B451A954234BF2B4613463BB16069C918C018D21A60612161E283ED1A0DB9284615E002AB43F8045D31466269A068FFF7C2
:401940009DFF6061019B21690246C91A4D19256123B9A0683146FFF75FFFE08301987CBD13B502AC44F8043D2346FFF787FF019B002B18BF00201CBD2DE9F0410746884618
:4019800015461E460024384641462A460123FFF7E7FF30B1BA6B0134944201D80546F2E7002406B134602846BDE8F0812DE9F74F04460D461E461746002A00F0B98090F839
:4019C00036001146FFF778FDB4F81EA0A36A20FA0AFA9A45814680F0AB80638E04F118089A44284651464246FFF7B9FE2846FFF794FC6B7B002B40F09B80A38BAA68013B2F
:401A000009EA03091FFA89F303EB020926B9216C8F4203D2276401E0791C216494F8361010290AD0202911D1484601F020F831460746484601F026F84EE0484601F030F8A4
:401A4000B1B20746484601F027F845E0284600920193FFF7D3FA009A019B17F0010F13F802B01BD00BF00F0141EA06119954A28B013A934202D009F1010309E028460AF10E
:401A800001014246FFF76BFE2846FFF746FCAB681F7832093F0147EA1B171CE09E54A28B013A934202D009F1010309E028460AF101014246FFF753FE2846FFF72EFCAB6850
:401AC0001A78310A02F00F0701F00F0122F00F024BEA07270A431A702846FFF78FFA94F83630202B18D1B4F84620AAB9B4F844102846FFF7F3FB2846FFF70FFCA8684FF01B
:401B0000FF3100F5F47000F0BDFF2846FFF776FA4FF00103A4F84630E36BB3F1FF3F09D00FB10133E3632EB1E36B013BE36301E0012000E00020BDE8FE8F6FF07043FFF719
:401B400035BF70B5036D04460E4693B1002506E0AA1820463146531CFFF728FF0135236DA26C013B9D42F3D320463146AA18FFF7E4FF0023A3642365E364636570BD70B584
:401B800006460D461C460AB1FFF710FF304629462246BDE87040FFF7D0BF00002DE9F84504460E4615461F46002B36D01C4B93F88030022B31D190F8368011464046FFF779
:401BC0007BFCB4F81CA00AF1FF3A2AEA000A4FEACA0ABAFBF8FAAA44A8460EE0204631464246FFF7BFFD50B9A36C0BB9C4F84880E36C08F101080133E364D045EED9E36CC8
:401C00005BB167653B685A6922B1204631462B46FFF7CCFE236D01332365BDE8F88500BFA492FF1F2DE9F8459846274B054693F880300F46022B1646846B19D1436D984597
:401C400003D0C36C0BB1FFF77CFFB8F1000F0FD06B6D43450CD12B6DEA6C9A4204D9AC6C1C1901332B652CE028463946FFF769FF012E04F1010A01D9564505D92E6C012E07
:401C800001D9564500D902263446284639462246FFF768FD50B101345445F6D902240DE0284639462246FFF75DFD30B92846394622464346FFF772FF03E00134B442EFD330
:401CC00000242046BDE8F885A492FF1FF8B507460E461546FFF7A6FF044628B1384631462A462346FFF74BFF2046F8BDB2F1FF3F73B504460D4614D0561A013611D0FFF74C
:401D0000FDFA084B00211A8AA06800F035FE022300936068A3682946324600F0A9FF0023E3737CBDA492FF1F2DE9F84F984690F8363004460C2B0D4616465AD04FF0FF3A5E
:401D4000D1463CE094F836003146FFF7B5FBB4F81CB0678E0BF1FF3B10EA0B0BE38B1DD1D840013F3F18022228463946FFF7B6FAA38BAA689B0852F80B1079B9013B0BF12A
:401D8000040BF8D13BE0494628465246FFF7AEFFB946BB462846FFF734F9DA462946324601232046FFF7DCFD29460746324620460023FFF7FBFD2FB108F1FF383E46B8F11F
:401DC000000FBFD1284649465246FFF78FFF13E02946324601232046FFF7C2FD29460746324620460023FFF7E1FD2FB108F1FF383E46B8F1000FEBD14046BDE8F88F0AF1CC
:401E0000010B5F45BFD1C5E72DE9F8450546FFF7CBF8044608B90546D0E0284600F054FF684E338A834208D338B10021284622460B4600F0DCFE002804DA2046FFF7CAF876
:401E40000025BBE004F5FF7000F02AFE4AF65523984240F0AD8004F10B0000F021FE10F47E4F074600F0A480338A8342C0F0A080237C022B40F09C8094F80D80B8F1000FB7
:401E800000F096800021402205F1180000F074FD04F1130000F004FE064620B904F1200000F0E5FD064604F1160000F0F9FD824680B904F1280000F0F3FD10F08F0F77D103
:401EC00004F1240000F0D3FD824604F12C0000F0CEFDE862022385F83530C5F828A0AE6185F8348004F10E0000F0DAFD688604F1110000F0D5FD95F835206B8E288602FB49
:401F00000A3A7A0992B2B0FBF2F25244AF832A62092301219940B94201D1EB8302E00133102BF6D108FB07F7B61AB6FBF8F6AE636F623046FFF7F6FA202818BFC5F82CA0E3
:401F40004FF0FF33202885F83600EB6332D104F1300000F0A5FD00230146A5F844002246284600F044FE002822DB204600F07FFD804604F5F27000F07AFD074604F5FE7067
:401F800000F075FD104B984514D1104B9F4211D10F4B98420ED104F5F67000F068FD286404F5F47000F063FDB04203D8E86301E0002500E001252046FFF70CF82846BDE8ED
:401FC000F88500BFA492FF1F5252614172724161000055AA00238B60837F202B01D102B942694A600A60704783680133836070472DE9F0410C46202105461F469DF81860D8
:402000004FF0000800F0B8FC10E014F8080036B9E52804D1B8F1000F01D1E03802E000F009FDC0B205F8080008F10108B845ECDBBDE8F0812DE9F74506460D460846284963
:40204000002A14BF92464FF0FF3A00F0CBFC804650B930462946022200F05DFEB01C2021092200F089FC37E04FF0FF34002715F80780B8F1000F01D0574505D1B4F1FF3F6A
:4020800008BF3C4664B925E04046FFF75EFA08B3B8F12E0F08BF3C4601370D2FE7D119E0082C17DC3F1B042F14DC30462946082223464FF00008CDF80080FFF799FF012378
:4020C000611C009306F10800691803227B1EFFF78FFF01E04FF001084046BDE8FE8500BF844900002DE9F74FD2F808B0436A4FEA4B18B8FBF3F8D368054698450E461446D5
:40210000D2F8009001D20023D360B5F81EA0E368AAF1050A0BB9D4F804902BFA0AF7B9F1000F17D095F83420B8EB0303019206D04A4628463146FFF713FC814640B349461C
:4021400005F11800FFF7FBF9019B591E01EA0707C11906E02B8E43FA0AF39F4218D2E96A79183046C4F80090C4F80C800122FFF7B5F83046FFF7D1F850B9013000FA0AFABC
:40218000B3680AF1FF3A0AEA0B0B03EB4B1000E00020BDE8FE8F2DE9FF4107460E4601A811461A460A9D9DF82C40FFF743FFC8B9384631462A46FFF795FF8046A0B1037812
:4021C00083B101A90B2200F0C7FB38B998F80B3004EA0302A24201D1082B05D12846FFF703FFE5E74FF00008404604B0BDE8F0812DE9F04587B002AF04460E4615469846E1
:402200009DF83CA039460E9A1830FFF7E3FE204631462A4643460097CDF804A0FFF7BBFF07B0BDE8F0852DE9F04500F1180785B005460C46384669469246FFF7CBFE284631
:4022400021466A46FFF74EFF06466846E846FFF7CBFE002E37D1BAF1000F02D12B8E002B35D12146009A00232846FFF785FB2146024600232846FFF729FD80462046FFF7EA
:4022800048F8B8F1000F22D0AA8B0021A06800F073FB38464146FFF752F995F8347000257E1E361808E0314620460122FFF716F82046FEF7EFFF013E01357B1BB3F1FF3FD0
:4022C000F1D1A66803E033780BB1E52BB7D1304605B0BDE8F08538B504461A3000F0E0FB054604F1140000F0DBFB45EA004038BD2DE9F0451D4685B007460E462A601046B9
:402300005C21904600F09DFB4FF0000A0446A04508D108F10108C5F8008040465C2100F090FB044694B1C8EB0403002B0EDD10220192103A0292384631464246CDF800A0D0
:40234000FFF77EF970B1FFF7C6FF824628685C2100F077FBA04604460028D8D10C9B0130C3F800A005B0BDE8F085F8B505460C461E461746DAB16FF01A0313700846FEF702
:402380003DFE16B94FF47A7608E007F11C0000F06EFB6B6A5E1E3618B6FBF3F63846FFF79AFF2146024633462846FFF7BDFC607BF8BD00002DE9F04FD1F8008093B0D8F8BF
:4023C00008700BAD044608930E464FF0FF333946284609920F939DF870A0FEF74DFE10AB009338462946224611ABFFF781FFD0B1F27A109B07920FAA00930292002338466D
:402400002946119A0193FFF71BF9044680B1C37A13F0100F07D10D9BDDF82CB0C3EB00094FEA691906E02846FEF76AFF0125A3E083468146099B002B3CD0002C33D0524BD5
:402440005D6912E02B687BB1AA7A6AB19A8B4A450AD19A695A4507D19B68BB4204D14FF6F772328100257EE0ED68002DEAD10DF12C0C6146384622460123CDF818C0FFF72D
:4024800074FFDDF818C018B14FF0FF3333816AE03E4B1B68DC6824B138466146109A0F9BA0472C4606E0BAF1000F03D1089A002A44D065E0089BEBB1CCB1E37A13F0010F08
:4024C0000BD0079A12F0150F07D04FF6FA733381BAF1000F01D1012500E000252046FFF7FAFE074604F11C0000F0C1FA29E0BAF1000F45D0BAF1010F01D000251BE0ECB9C0
:4025000000F022FD214B20221B68019282B2000C03920490009402949D6838460BA9119A109BA84750B10D9ADDF82CB0C2EB00094FEA6919254628462F4602E00125002079
:4025400007464FF0FF33C8F81030C8F818B0A8F81C90079AC8F8040012F0010308BF1846C8F800707060B6F908300BA835EA230528BF0125FEF7C4FE284613B0BDE8F08F3F
:4025800001255046DCE700BFA492FF1FF880FF1F70B505460C461A3089B200F07DFA05F11400210CBDE8704000F076BA2DE9F0470446BDF824700D469146002120229A464C
:4025C000BDF82860DDF8208000F0D6F90B222046294600F0A0FB04F10E00394684F80BA000F05AFA04F11000314600F055FA04F11600394600F050FA04F11800314600F0FD
:402600004BFA20464946FFF7C3FF04F11C004146BDE8F04700F036BA07B5426803460AB910460AE081680020009048681968DB6800F0FCFA003818BF01200EBD2DE9F04767
:40264000046805460F46A668FFF746F981468246002841D0D4F80080B8F1000F1BD14246304639462B46FFF7DDFA0246D8B11C4B6061C4F8108093F880302060022B07D094
:4026800030463946FFF759FA10B10120BDE8F087B9F1010A20D03046394662692B46FFF7C1FA804628B94FF6FE732B810130BDE8F0870B4B93F88030022B05D03046394679
:4026C00062694346FFF75BFA2369C4F8148001332361BAF1010ADDE70020BDE8F08700BFA492FF1F2DE9F041836804460D4608460122A1699E8BFEF7F1FD2846B4F81C80D2
:40270000AF68FEF70AFEF8B9013E06EA4816B6B2BE1906F11C00616800F0B4F921683046FFF736FF00F010FC0446A1B206F1160000F0B2F906F11800210C00F0ADF92846E4
:40274000BDE8F041FEF7E5BDBDE8F0817FB50668B0F90830B568C3B9C37A13F0110F14D029466846FEF788FC30466946FFF7BAFF064B6C4693F88030022B03D128466946B0
:40278000FFF7DFF96846FEF7BBFD7FBDA492FF1F03682DE9F04F9F68038995B001339BB2012B04460E46059201D90025CEE0394610AD0CA8FEF760FC39462846FEF75CFCBE
:4027C000039626680023D6F808909A4609F118010791D9F82420059906924FF0FF32099308920A950291049320460CA9FFF726FF38B108A8FFF710FF5546002818BF002551
:402800008FE03269069901324A43B9F81CB063680BF1FF3BD21A0BEA030B029B0798934228BF134601937169FEF789FE99F83430B9F81C206768013BB7FBF2F703EA070704
:40284000C719B9F81C300199CBEB03058D4228BF0D469D4228D0BBF1000F03D1626873689A420FD00DF14008404639460022FEF735FD4046FEF751FD20B14FF6F9725546DB
:40288000228154E01298039958442A460DF1400800F041FA404639460022FEF71FFD4046FEF7F8FC90B141E0099B089A9A1897420AD008A8FFF7B0FE002837D10123099386
:4028C000039B08970B9301E001330993029B03995B1B019A029363684919521BAA44ED186560736803919D42019207D91BB1194B93F880300BB9012104917560019A1AB139
:4029000001374FF0000B9CE7029B002B7FF46CAF08A8FFF781FE04995546002818BF002529B1304610A9FFF7DDFE00E05546059A954205D0B4F9083013B94FF6F873238116
:402940000CA8FEF7DDFC10A8FEF7DAFC284615B0BDE8F08FA492FF1F10B5002308E0C45C11F803C0013A0133644501D0012010BD002AF4D1104610BD70B5034602E003F8B7
:40298000011C013A1C4622B103F003050133002DF5D193081ED04FF001354D4308E044F8105C44F80C5C44F8085C44F8045C043B032BA44604F11004F1DC1C46002603E0D2
:4029C0004CF80650013B0436002BF9D102F003020CEB8404002302E0E154013A0133002AFAD170BD002310F803C0CA5C624501D0012070470133002AF5D1104670470023D9
:402A000000E00133C25C002AFBD11846704710B500230BE0C45C11F803C0644501D0012010BDC4186478013314B1013A002AF1DC002010BDA0F16103192B98BF00F0DF0003
:402A40007047C9B203E00BB918467047013003788B42F8D1704742780178431C42EA01205A789B7842EA002043EA002070478378C27803EB0222437803EB0222037803EBDE
:402A80000220704703460A0A03F8011B42700A0C090E5A70997070470170090A417070474278037843EA022070470000094A0A4BC11C10B5146821F00301186809198142F9
:402AC00001D9002010BD11609A685868013220189A6010BD2893FF1F9081FF1F08B5FFF7E5FF00B9FEE708BDFFF7E0BF30B1044A9368013B93600BB9024A1360704700BFC1
:402B00009081FF1F2893FF1F014B5860196070479081FF1F38B50546FFF7E0FF002104462A46FFF729FF204638BD000010B5084CA37C0BB1002010BD4FF40073238200F09D
:402B4000F5F9A37C012043F00103A37410BD00BFA492FF1F08B583680BB10020984708BD08B583680BB10120984708BD10B504680079A468A04710BD37B59DF818500468E9
:402B800000790095E468A0473EBD08B5036800799B69984708BD036810B55B69044623B10079984708B1002000E00120607110BD10B5437904460BB9FFF7EDFF607910BD97
:402BC000F7B504461F460E461546FFF7F1FF2046FFF7C6FF2A463146012320460097FFF7C5FF05462046FFF7B5FF2846FEBD10B504690919BDE81040FFF7E2BFF7B50446A8
:402C000015461F460E46FFF7D3FF2046FFF7A8FF0023009331462B463A462046FFF7ACFF05462046FFF796FF2846FEBD30B504699DF80C5009190395BDE83040FFF7DEBF86
:402C4000F7B5044615461F460E46FFF7B1FF2046FFF786FF0123009331462B463A462046FFF78AFF05462046FFF774FF2846FEBD30B504699DF80C5009190395BDE830406A
:402C8000FFF7DEBF73B504460E461546FFF790FF2046FFF765FF00232A460093314601332046FFF769FF05462046FFF753FF002D14BF4FF0FF3000207CBD10B50469091972
:402CC000BDE81040FFF7DEBF30B5054685B0FFF76FFF2B6828791C694FF47B71002201ABA04708B1002001E0BDF80C0005B030BD70B506460D46FFF75BFF336830791C69EC
:402D00004FF47B7100222B46A047002814BF4FF0FF30002070BD11F0030F70B584460B4632D110F0030F2FD195100446AC4611E053F8106CACF1040C44F8106C53F80C6C0B
:402D400044F80C6C53F8086C44F8086C53F8046C44F8046C10341033BCF1030FE8D8AB081B0100EB030CCB1815F003050AD0284600215C584CF8014004310138F9D1AD0083
:402D8000AC445B1902F0030213F0010F19462FD11CF0010F60462BD15410254610E031F8086C043D20F8086C31F8066C20F8066C31F8046C20F8046C31F8026C20F8026CFC
:402DC00008300831032DEAD8A108C9005B1814F003048C440AD0204600215D5A2CF8015002310138F9D16400A4441B1902F00102614610E013F8040C043A01F8040C13F874
:402E0000030C01F8030C13F8020C01F8020C13F8010C01F8010C18460433032A8C4601F10401E7DC32B10023C15C0CF8031001339342F9D170BD0378E92B01D1012070477C
:402E4000EB2B01D0002070478078902814BF00200120704708B500F5FF70FFF721FE4AF65523984214BF0020012008BD01EB001000F5E370FFF7FBBDF0B50D4685B01446FF
:402E8000064658B352B300210B46FFF799FE002824DB2046FFF7DEFF00B32046FFF7CBFF10B10024274616E02146FFF7DFFF074604F5E570FFF7DBFD01A904463046FFF732
:402EC00017FF5CB157B1E219FF23120AB2FBF3F2029B9A4202D81DB12C6001E04FF0FF37384605B0F0BD000073B50446FFF7ECFE0646FEF759F80C4B05461B8AB3420DD3F9
:402F000066B1204601A92A46FFF7B6FFB0F1FF3F04D02061019B6361002400E0FF242846FEF758F860B27CBDA492FF1F08B54FF480510348FFF7E8FD0248FEF77BFA08BDD2
:402F40009C81FF1FD04900004FF40410704700BF4FF6FF7070470000014B1868704700BF9C91FF1F00487047F049000000F016BD37B501220DF10701054600F015FD9DF846
:402F80000740FF2C14BF0A240724284601220DF1070100F009FD9DF80700FF2803D1013CE4B2002CF1D13EBD37B50469857828460DF10701012200F0F7FC9DF807300BB13B
:402FC000002003E0013CF2D14FF0FF303EBD37B54FF0FF3305460C468DF8073006E028460DF10701012200F0EDFC013C002CF6DC3EBD000038B5094C2368032B02DD4FF00A
:40300000FF3509E0DDB2013323601420FFF782FD04EB850460608570284638BD9C91FF1F08B5034B4FF400711B68984708BD00BFFC80FF1F4FEAD20CACEBD103CCF10F0C10
:4030400010B501336044002410F801CB013B4CEA0424F9D101F00703511A02228A40DC40013A04EA020010BD7FB5130E85788DF80530130C01F03F018DF80630130A41F08A
:4030800040018DF8073000238DF808208DF804101A4601A911F802C000215B00DBB283EA0C0E1EF0800F18BF83F009030131082904D04FEA4C0C5FFA8CFCEEE70132052A72
:4030C000E7D15B0043F001038DF809308678C4680122304603A900F067FC9DF80C30FF2B04D00CB9FF2009E0013CF1E7284601A9062200F067FC2846FFF73AFF04B070BD44
:40310000F7B5847806460F4620460121FFF75FFF204600F0E5FB304609210022FFF7A4FF8DF8070028BBF6680546012220460DF1060100F039FC9DF80630FE2B06D0FC2B1D
:4031400004D00135ADB2B542EFD112E00DF1070520463946102200F027FC29462046012200F022FC29462046012200F01DFC002500E0FF25204600F0BDFB20460121FFF74D
:4031800026FF2846FEBD00002DE9F04F9B46494B89B003EB800305925C684A02029103924FF00309029AA578E678039B2846022E08BF13461E4600F09DFB01212846FFF74E
:4031C00006FFBBF1010F0CBF4FF0110A4FF0120A284600F085FB204651463246FFF744FF002851D1059F5E46A378E268B44604924FF000081E460FE0012230460DF11F012A
:40320000CDF804C000F0D0FB9DF81F20DDF804C0FE2A05D008F10108049B9845ECD333E0284639464FF40072664600F0BDFB0222284607A900F0B8FB9DF81C3038460193C2
:403240009DF81D80FFF7ECFE4FF6FF729042019B0CD048EA0328404508D0BAF1120F13D120460C210022FFF7FFFE0DE0013E02D007F50077B8E7BAF1120F07D120460C21E3
:403280003246FFF7F1FE01E04FF0FF36284600F031FB28460121FFF79AFE3EB1B9F1000F02D009F1FF397DE74FF0FF36304609B0BDE8F08F9C91FF1F2DE9F04F99464C4BC7
:4032C00087B0029203EB80039DF840205D68009103926B78002B40F085804B0201930327009BAC78EE78019A2046022E08BF1A46164600F0FFFA01212046FFF768FEB9F114
:40330000010F0CBF4FF0180A4FF0190A204600F0E7FA284651463246FFF7A6FE8DF81700002850D120460121FFF751FE029ECB46B8463046FFF774FE0DF11707BAF1180F74
:403340000CBFFE23FC2301228DF817308DF81500030A394620468DF8143000F033FB204631464FF4007200F02DFB0222204605A900F028FB01222046394600F015FB9DF84E
:40338000173003F01F03052B1CD12846FFF70CFEC0B9039A0AB906F50076BBF1010BC8D1BAF1190F474611D106A96FF00203204601F8013D012200F005FB2846FFF7F4FD31
:4033C00020B100E047464FF0FF3600E00026204600F090FA20460121FFF7F9FD26B10FB1013F7DE74FF0FF36304607B0BDE8F08F9C91FF1F2DE9F04F877887B00446384623
:403400000D4600F06DFA20463A210022FFF72CFE064638B1384600F06DFA38460121FFF7D6FD58E00DF1140804224146384600F0BBFA4046FFF70FFB8046384600F05AFA3C
:4034400001213846FFF7C3FDB8F1000F28F07F02B8BF4FEA987BD2B240F272634FEA1828B8BF0BF0010B1FFA88F8002A14BF1A460022012111EA080F05D10136F6B2490016
:40348000102E89B2F6D140F27260824233460DD06422724302F5FA6208E011EA080F07D049000133013689B2DBB2F6B20F2EF4D964214B434FF6FE7103F5FA6302EA010117
:4034C0004FF6FC72384603EA020200F049FA10F0FF0F40F099804FF0FF3092E028467E217F22FFF7A7FD8246EB78DFF82C8103F0030203F0780308EBD30358F822101B7C01
:403500003846594389B200F001FA0646002877D06B7803F00702DB1003F00F0308EB82024344126A93F810800292B8F1000F67D0A978284603911C221A21FFF77BFD01900E
:40354000BAF1000F1FD1502153222846FFF772FD4FF0010909FA00F92F2131222846FFF769FD1FFA89F982463E21284649224FEA5929FFF75FFD0AF1020A09FA0AF9013050
:4035800000FB09F910E0BAF1010F01D0012038E0284630214522FFF74DFD4FEA8029BBF1000F01D00223E37008FB06F2029B0399B2FBF3F2642303FB01225A437343D20872
:4035C000DB089A4294BFE260E360FA235E43019BF6089A400C21B24294BF2261266128460D22FFF727FD0546384600F08DF94FF4007128436070A180C4F80890002000E02A
:40360000FF2007B0BDE8F08FE378A778012B3FF465AF4FF0000A67E788490000F0B5857887B004464FF4C871284600F06FF9B0F5C87F00F2CC804CF25033E3600026284614
:4036400000F058F90A212846FFF7C1FC624B93E8030001902846ADF8081000F041F9062201A9284600F0AEF92846FFF781FC0746284600F03FF901212846FFF7A8FC17F0E0
:40368000010F03D10136052ED9D1A0E0284600F027F9082120464FF4D572FFF7E5FC10F0040F52D0284600F025F9A5784FF4FA66284600F015F9002237212046FFF7D4FCA1
:4036C00028460121FFF783FC292100222046FFF7CBFC0746284600F00DF928460121FFF776FC17B90123E3701EE017F0040F01D1013EDDD14FF4FA66284600F0F1F8012163
:4037000000222046FFF7B0FC0746284600F0F2F828460121FFF75BFC0FB9E77004E0012F55D1013EE8D152E001AD20462946FFF7E7FC00284BD120462946FFF75BFEC0B234
:40374000002844D10123237043E00422A07805A900F02AF9284600F0CDF89DF81730AA2B35D19DF8163003F00F03012B2FD1A5784FF4FA66284600F0B3F8002237212046A4
:40378000FFF772FC28460121FFF721FC29214FF080422046FFF768FC0746284600F0AAF828460121FFF713FC0FB1013EE2D101AE20463146FFF7A4FC48B90125E57020465F
:4037C0003146FFF717FEC0B208B9257001E04FF0FF3007B0F0BD00BFC849000010B5084B03EB80035C6823783BB9FFF7BFFB20B12046BDE81040FFF711BF4FF0FF3010BD43
:403800009C91FF1F38B51D46154BA1F57B7103EB80035C68072918D8DFE801F00A17171704041719204600211422FFF7A5F80CE0237833B92046FFF7F1FE10B14FF0FF303A
:4038400038BDA3882B81A3686B60002038BD2046FFF74CF9024B00201A68013A1A6038BD9C91FF1F10B580B9104B1B78EBB901240E4B1C7000F036F921463B2000F04EF95A
:4038800000F022F900F012F910BD084B1B7863B90124064B1C7000F025F921463B2000F03DF900F011F900F001F910BDB091FF1F08B550B9084600F0B5F800F0A7F810F0EB
:4038C000010FFAD000F0BAF808BD084600F0AAF800F09CF810F0010FFAD000F0AFF808BD08B510B900F086F908BD002000F082F908BD00BF08B518B9012000F07BF908BD4C
:40390000012000F077F908BD0020704738B5B1F5C87F04D30D46B1F5FA7F03D804E04FF4C87501E04FF4FA756C00A4B245F6C053B3FBF4F448B900F0D5F8601E012180B23F
:4039400000F0ECF800F0C0F808E000F0CBF8601E012180B200F0E2F800F0B6F8284638BD032809D840F6E44399420FD840F6E3439A420DD80020704740F6E443994209D85B
:4039800040F6E3439A4207D8002070470020704701207047002070470120704708B5FFF761FF022008BD00BFF8B507460D4614466E1CFF213846FFF77BFF28703546013C73
:4039C000F6D1F8BD70B5064614464D1C09783046FFF76EFF2946013CF7D170BD08B5FDF7DBFA094A137843F0200313700132137843F010031370073A137843F010031370C3
:403A0000FDF7CEFA08BD00BF9A650040014B1878704700BF6B650040014B1878704700BF64650040034B1B7813F0040FFAD0024B187070476B65004048650040014B187824
:403A4000704700BF5865004008B501E00A4B1B780A4B1B7813F0200FF8D1FDF79DFA084B1A7842F001021A701A7802F0FE021A70FDF796FA08BD00BF58650040646500401F
:403A80009865004008B50F22064B1A70FFF7DCFFFFF7BCFFFFF7C0FF0023034A1370073A137008BD8A6500408B65004008B5054B1B7823B9FFF7E6FF0122024B1A70FFF7A7
:403AC0008DFF08BDB191FF1F054A137843F0010313701032137843F001031370704700BFA2430040054A137803F0FE0313701032137803F0FE031370704700BFA24300402F
:403B0000014B188880B2704780400040024B187800F00700704700BF8240004070B505460E46FFF7F3FF0446FFF7EAFFA84256D02B4B1B7803F0010294B900B185B938B953
:403B4000284B1D80284A137803F0BF03137070BD254A137843F040031370224B1D8070BD22B3002321490B7001240F310C7004310B700C390B7803F07F030B701A4B1B788B
:403B800013F0080F00D08DB9194B18800721013B1970164B1B7813F0010FFAD110490B7803F0FE030B700021104B19700C4B1B7813F0010F0DD00E4B1D800EB1032200E036
:403BC00001220A4B1A70094B1B7813F0010FFAD170BD044B1D8002490B7813430B7070BDA243004080400040824000400140004002400040044A137803F0EF03000100F040
:403C0000100018431070704710510040014B1868704700BF6081FF1F0E4B70B51E460E4C0025E41AA410A54204D056F8253098470135F8E700F0FAFE084B094C1E46E41AA9
:403C4000A4100025A54204D056F8253098470135F8E770BD384A0000384A0000384A0000404A000010B5431E0A44914204D011F8014B03F8014FF8E710BD03460244934211
:403C800002D003F8011BFAE7704700000EB400B54FF402719CB0ADF814106FF00041049107914FF6FF711DAB02900690084853F8042BADF81610006802A9019300F06CF83F
:403CC000029B00221A701CB05DF804EB03B070476081FF1F034613F8012B002AFBD1181A013870472DE9F0478E6882469E420C46914698463ED88A8912F4906F3AD02568B3
:403D0000096902236F1A656905EB450595FBF3F57B1C43449D4238BF1D4653050FD5294600F040FB064698B13A462169FFF79AFFA38923F4906343F08003A38113E02A4615
:403D400000F08EFB064670B92169504600F0DEFA0C23CAF80030A3894FF0FF3043F04003A381BDE8F08726613E44266046466561ED1BA560464528BF464649463246206881
:403D800000F0A8FAA36800209B1BA36023681E442660BDE8F08700002DE9F04F9DB003938B8980461C060D4616460DD50B695BB9402100F0F7FA2860286118B90C23C8F89E
:403DC0000030CDE040236B610023099320238DF82930DFF89CB130238DF82A3037463C4614F8013B1BB9B7EB060910D003E0252BF9D02746F3E74B46324629464046FFF79E
:403E000071FF013000F0A780099B4B4409933B78002B00F0A08000234FF0FF3204930793059206938DF853301A930126052221784E4800F041FA671C049B38B14B4A3C469A
:403E4000801A06FA00F018430490EFE7D90644BF20228DF853201A0744BF2B228DF8532022782A2A03D0079A00210A200BE0039A111D12680391002A10DA524243F0020020
:403E8000079204900BE027463B780134303B092B03D800FB02320121F5E701B107923B782E2B1ED17B782A2B0AD1039B02371A1D1B680392002BB8BF4FF0FF33059310E0C4
:403EC000002319460593781C0A2407463A780130303A092A03D804FB01210123F5E703B1059103223978224800F0E6F940B14023CBEB000003FA00F0049B01371843049007
:403F0000397806221B487E1C8DF8281000F0D4F988B1194B33B9039B073323F007030833039314E003AB00932A46144B04A94046AFF3008007E003AB00932A460F4B04A9EA
:403F4000404600F093F8B0F1FF3F824603D0099B5344099342E7AB895B0601D4099801E04FF0FF301DB0BDE8F08F00BFF6490000FC490000004A000000000000E53C0000CD
:403F80002DE9F04791461F460A698B6806469342B8BF1346C9F8003091F843200C46DDF8208012B10133C9F800302368990642BFD9F800300233C9F80030256815F00605A6
:403FC00010D104F1190A07E00123524639463046C04701301AD00135E368D9F800209B1A9D42F1DB94F843302268003318BF012392060FD5E118302081F843005A1C94F802
:4040000045102244023382F8431003E04FF0FF30BDE8F08704F1430239463046C0470130F4D02268D9F80050E36802F00602042A08BF5D1B2269A3680CBF25EAE5750025DF
:404040009342C4BF9B1AED184FF000091A344D4509D00123224639463046C0470130D5D009F10109F3E70020BDE8F0872DE9F04317460A7E85B06E2A984606460C460C9B97
:4040800001F1430E00F0AE8011D8632A22D009D8002A00F0BB80582A40F0CA8081F84520834955E0642A1ED0692A1CD0C0E0732A00F0B08009D86F2A2ED0702A40F0B88054
:4040C0000A6842F020020A603EE0752A24D0782A3AD0ADE01A6801F14205111D1960136884F84230A8E021681A6811F0800F02D0111D196008E011F0400F02F10401196096
:4041000002D0B2F9003000E01368002B3CDA2D225B4284F8432037E021681A6811F0800F02D0111D196007E011F0400F02F10401196001D0138800E01368227E5C496F2AF3
:4041400014BF0A2208221BE078225A4984F845202268186812F0800F00F104051D6003D1550601D5038800E00368D00744BF42F0200222601BB9226822F02002226010221A
:40418000002084F8430001E049490A226568002DA56008DB206820F0040020602BB9002D7DD175460CE0002B79D07546B3FBF2F002FB1033CB5C05F8013D03460028F5D1E5
:4041C000082A0BD12368DA0708D5236962689A42DEBF302305F8013C05F1FF35C5EB0E0323612EE008681A6810F0800F496903D0101D1860136808E010F0400F02F104003B
:404200001860136801D0198000E0196000232361754616E01A68111D1960156800216268284600F049F808B1401B6060636804E004F1420584F8422001232361002384F85C
:404240004330CDF800803B4603AA21463046FFF797FE013002D14FF0FF3026E023692A4639463046C0470130F5D023689B0710D5002504F1190907E001234A4639463046AC
:40428000C0470130E7D00135E368039A9B1A9D42F2DBE068039B9842B8BF184605E00B7804F1420584F842308AE705B0BDE8F083074A0000184A000010B5C9B20244904220
:4042C000034605D01C7801308C42F8D1184610BD002010BD884210B501EB020301D8421E0BE09842FBD28118D21AD34204D013F8014D01F8014DF8E710BD994204D011F86F
:40430000014B02F8014FF8E710BD000038B50546002944D051F8043C0C1F002BB8BFE41800F0D4F81E4A1368114613B96360146030E0A3420DD92268A018834201BF186859
:404340005B681218226063600C6023E0A24203D813465A68002AF9D118681918A1420BD12168014458188242196013D110685268014419605A600DE002D90C232B6009E0EA
:4043800021686018824201BF106852680918216062605C602846BDE8384000F098B838BDB891FF1F70B5CD1C25F0030508350C2D38BF0C25002D064601DBA94202D90C23EC
:4043C000336046E000F082F8234B1C681A462146A1B10B685B1B0ED40B2B03D90B60CC18CD501EE08C420BBF63684B681360636018BF0C4615E00C464968E9E7174C23681D
:404400001BB9304600F052F820602946304600F04DF8431C18D0C41C24F00304A0420DD12560304600F053F804F10B00231D20F00700C31A0ED05A42E25070BD211A304668
:4044400000F034F80130EBD10C233360304600F03EF8002070BD00BFB891FF1FB491FF1FF8B5074615460E4621B91146BDE8F840FFF798BF1AB9FFF749FF2846F8BD00F0D7
:4044800027F885420ED929463846FFF78BFF044650B131462A46FFF7E5FB31463846FFF735FF01E03046F8BD2046F8BD38B5064C0023054608462360FCF794F9431C02D144
:4044C000236803B12B6038BD2C93FF1F7047704751F8040C0028BEBF091851F8043CC0180438704700000000542C0000562C0000532C0000740D0A004441544F5325642E01
:40450000747874007200000061000000453100002A256325642C25642A0000007420746F74616C20202020316D696E0074206D756573747261203130736567002A2E6B777C
:404540006C0000000D000000636C6561725F70616E656C28290000007365745F677269645F73697A652831372C313029000000006164645F7465787428302C322C6D6564E5
:4045800069756D2C4C2C6D756573747261732C3234352C3234302C3234352C29000000006164645F7465787428302C312C6D656469756D2C4C2C7469656D706F2C3234354B
:4045C0002C3234302C3234352C2900006164645F7465787428382C302C786C617267652C4C2C70726F796563746F20426C7565746F6F74682C302C3235352C302C29000061
:404600006164645F627574746F6E2831362C312C32312C312C3429006164645F627574746F6E2831362C322C32322C322C3529006164645F627574746F6E2831362C332C2E
:4046400032332C332C3629006164645F627574746F6E2831362C342C372C4F2C6F2900006164645F627574746F6E28382C362C31342C2C74290000006164645F6275747483
:404680006F6E2831342C362C31352C2C732900006164645F627574746F6E28322C362C31362C2C73290000006164645F726F6C6C5F67726170682831322C372C352C302EB6
:4046C000302C3130302E302C3130302C562C766F6C74616A652C582D417869732C592D417869732C302C302C312C302C302C312C6D656469756D2C6E6F6E652C312C312CE9
:4047000034322C39372C3232322900006164645F726F6C6C5F677261706828362C372C352C32302E302C34302E302C3130302C542C74656D70657261747572612C582D41D9
:404740007869732C592D417869732C302C302C312C302C302C312C6D656469756D2C6E6F6E652C312C312C34322C3235352C3029000000006164645F726F6C6C5F67726178
:40478000706828302C372C352C302E302C3130302E302C3130302C532C76656C6F6369646164206D6F746F722C582D417869732C592D417869732C312C302C312C302C3170
:4047C0002C312C6D656469756D2C6E6F6E652C312C312C3235352C302C3029006164645F6D6F6E69746F7228372C312C382C2C31290000006164645F73656E645F626F7834
:4048000028322C312C332C2C6D2C6A29000000006164645F73656E645F626F7828322C322C332C2C6D2C6629000000007365745F70616E656C5F6E6F746573282C2C2C2955
:404840000000000072756E28290000002A5425642C25642A0000000025642C25640D0A004572726F722045005465726D696E6F20677561726461646F00000000656E3A2076
:4048800000000000005100401000205100401000405100403000F0510040100000000140001000140140000480180140800300400140000A004C0140000200500140200033
:4048C0000018014018060048800000004449000008000100464900000A00010049490000140100014B490000160100014E49000015000101504900001700010153490000F9
:4049000018000100564900001A0001005A4900001A0001005E4900001C010001614900001E010001654900001E010001694900001D0001016C4900001F0001017049000029
:404940001F000101720072620077007762006100616200722B00722B620072622B00772B00772B620077622B00612B00612B620061622B00F11600002F160000D515000079
:40498000000000002E2E00000A00000064000000E803000010270000000A0C0D0F14191E23282D32373C41508096980040420F00A086010010270000E803000064000000F4
:4049C0000A000000010000004000000000950000652F0000F52F000089310000B932000005380000DD3700006D2F0000592F00006D6D63004300232D302B2000686C4C009A
:404A00006566674546470030313233343536373839414243444546003031323334353637383961626364656600000000F8B500BFF8BC08BC9E4670474D0000006108000039
:404A4000F8B500BFF8BC08BC9E46704729000000604A0000C880FF1FA0000000C8110000000000004441544F53302E74787400000000003001000100060000003093FF1FB3
:404A80000000E02EC05D00001800000000366E0174490000512F00000000000000000000000000000000000000000000000000000000000000000000F44900000000000094
:404AC00000000000000000000000000000000000000000000000000000000000000000000000000000000000000000000000000000000000000000000081FF1F0000000017
:404B00000000000000000000000000000000000000000000000000000000000000000000000000000000000000000000000000000000000000000000000000000000000075
:404B40000000000000000000000000000000000000000000000000000000000000000000000000000000000000000000000000000000000000000000000000000000000035
:404B800000000000000000000000000000000000000000000000000000000000000000000000000000000000000000000000000000000000000000000000000000000000F5
:404BC00000000000000000000000000000000000000000000000000000000000000000000000000000000000000000000000000000000000000000000000000000000000B5
:020000040003F7
:0200000480007A
:400000000452004001640040036500404F0601403207014058140140511501405A1601404E1701400E1801403B190140421A01404C1B014003400140024101400242014054
:400040000243014005480140094901400C4C0140034D014005500140015101400820096018021C01870F863888728A0F001804FF08DC0A210EC310441408170718E719072F
:400080001A181C1C1EE21F02201021012504260428802CC03020310734D8361F38023AA03F01580459045C015F01800688068A098C0490079208931294099606970C980F39
:4000C0009B019D019F02A104A303A508A703A802AE09B007B20EB30FB510BA08C036C105C50CC60BC70EC815C9FFCAFFCBFFCEF0CF44D00CD401D804D904DA04DB04DC0122
:40010000DD11DF01E6C0EA40EB02001001800240041806410A080BA00D010E060F1011801201131014021680171418301B011D011E061F5021082218248028A02B202C8087
:400140002F203080310A3210348036184104482849405280530859085A9265806680C0FBC2FEC4F3CAC3CC7FD002D20CD60F00140409053106D007060A030C0C0D2C0E71C8
:400180000F0310DC122217131B0C1C101E401F08241026AC2A202D312F0E310F341F36E0373039803A803B0A3F404005460449FF4A074BFF4C404D204EF04F0550085440F0
:4001C000580459045A045B045C115D015F01604061A862406320810783188401870388018D7C9303940C9503980199529B249C01A002A208A303A404A529A602A7C4A802F9
:40020000A97CAA04AD03B11CB20EB360B401B580B703B808BE10D804D904DC10DF0101A002A004200608072009820C800E261008110414A419E01D101E2020422102220409
:40024000232025012602271629402C802D102E802F1030083180322037193840390C3C803D023E084801500851806124624080808205842085018680873088518A408D248D
:40028000902091189204944095029608972098049B099CF19D709E059F16A040A2A1A408A612A980AC44B084B510C06FC2E9C476CAF8CCEECEDAD208D80EE205E609EA0606
:4002C0000201080209010D0113021B041E042101260427042E01300432013306340237013E153F04403441064205440246C047E0482849FF4AFF4BFF4C624DA04EF04F4110
:40030000500C54185604580459045A045B045C105D115F016640670269106A306B106D106E106F1284028533860D870C88108B088C0D8D0A8F34900D9421954096029715E5
:40034000982299039A089B149C229E04A00DA40DA80DAD33AF04B210B30FB40FB560B620B710B920BA20BB08BE44BF40D804D904DC10DF0102010328052108A50F02105069
:4003800012041622180219081B201C081F05211422602540272129402F503028340236023710384039283C803D1047294C044D404E0456225E045F0A674A79407B01851099
:4003C0008640874089028B408C01902092049408950A968899019CA29DC89E409F14A020A281A309A488A542A610A820AA10AE01AF18B440C057C28FC4AECAC8CCA6CE3EF2
:40040000D0E0D230D680D8B0E208E608EA08EE04840486038E0898359A029C039E2CA401A61EB038B407BA20D804DF01004003200404074809A00D010E1912201401151051
:4004400016121711184019101B201F102622274C2C012D102E012F10362437813C843D013E1045A047084C014D214F04561157485D406C206E206F027490762086308A10F6
:400480008B028F01A410AC10C075C2F3C4F4CAF0CCF0CEF0D070D230D610E040E6A0EC10EE04050109010D020F0113011501170219021B011D012101250335033B20560221
:4004C000572459045B045F01804681C1844285C1887789C08A088C468D109104950796469718980199019A5E9C399DC19E06A004A108A220A321A442A522A604A708AB8046
:40050000AC46AD01AFC0B008B13FB470B580B60FB740B880B902BA30BE01BF51D409D804D904DB04DF01040407490E19150916021C401DA01E091F6020042220240B27803E
:400540002A022B202E612F28322033453622374839183B803E163F805C415F14611067026840691A6A546B5172028180821083108501873089018A228B018C048E01910185
:40058000930694069502961199109A019B0C9E029F91A202A348A440A5A0A604A8C0AC20B308B560C0F0C2E0C4B0CAF3CCFFCEFED6F0D814E2B0E6E0E840EC04EE8033804C
:4005C0003640CC30A640A780A640A780A640A7808640A640AB80E640EE20022057088620A308AF08C010D440E440EE400D801D10610266029D10A102A910B502C201C601C9
:40060000D803EC08AA02B580EA0800030A0310031A031C03000F000000086000800400001F00200C000C0000C00C0200C000080F7F0180020010FF009001400E00109F0023
:40064000C0040408C00C010000100000FF0F000000020000000010001203500006CEBBFD3FFFFFFF2200F008040000000000021004040404001000010000C000400110110D
:40068000C00100114001400100000000000000000000000000000000007F7F0000000000807B7B0060000000020001020200020004000000130018010000000000000000D9
:4006C00000000000000000000000000000000000000000000000000000000000000000000000000000000000000000000000000000000000000000000000000000000000FA
:4007000000000000000000000000000000000000000000000000000000000000000000000000000000000000000000000000000000000000000000000000000000000000B9
:400740000000000000000000000000000000000000000000000000000000000000000000000000000000000000000000000000000000000000000000000000000000000079
:400780000000000000000000000000000000000000000000000000000000000000000000000000000000000000000000000000000000000000000000000000000000000039
:0200000490006A
:0400000000004005B7
:0200000490105A
:04000000BC90ACAF55
:0200000490303A
:020000008F82ED
:0200000490402A
:4000000000000000000000000000000000000000000000000000000000000000000000000000000000000000000000000000000000000000000000000000000000000000C0
:400040000000000000000000000000000000000000000000000000000000000000000000000000000000000000000000000000000000000000000000000000000000000080
:400080000000000000000000000000000000000000000000000000000000000000000000000000000000000000000000000000000000000000000000000000000000000040
:4000C0000000000000000000000000000000000000000000000000000000000000000000000000000000000000000000000000000000000000000000000000000000000000
:0200000490501A
:0C00000000012E16106900012E359FEB48
:00000001FF