:400000000080002011000000310700003107000008B5044B1A6803F53F5302331A6000F0A7FB00BFFA46004010B5054C237833B9044B13B10448AFF300800123237010BD65
:400040005081FF1F00000000E0280000084B10B51BB108490848AFF300800848036803B910BD074B002BFBD0BDE81040184700BF000000005481FF1FE0280000C880FF1FE2
:400080000000000008B500F0E3FF40B2074B18701B785BB2064A13601368C3EB03139A00044B1A60002000F0CDFF08BD6C81FF1FB891FF1FC491FF1F10B500F0EFFB414B2F
:4000C00018701B78DBB26A2B38D06D2B02D0662B64D103E001223C4B5A7010BD3B4B1A783B4B1A8001230BE0384AD25C3848018801EB81014C00224412B202800133DBB240
:40010000314A127852B29A42EEDC0B21012000F01BFD2F4C208880B200F034FD2A4900200870486063881BB2C3EB03139A0023881BB292FBF3F26260487010BD234B1A784B
:40014000234B5A8001230BE0204AD25C2048418801EB81014C00224412B242800133DBB2194A127852B29A42EEDC0B21002000F0EBFC174C608880B200F004FD1249002055
:400180000870486063881BB2C3EB03139A0023881BB292FBF3F26260487010BD0A4B5B7813F0FF0F0CD0084A13785BB20549097830390648C15413785BB201335BB21370E2
:4001C00010BD00BF3C92FF1F6C81FF1FBC91FF1FCC80FF1F38B562B6754800F07BFD754800F09AFE00F04CFB00F0A0FC00F0A4FF00F034FE00F004FF00F07EFF00210846F1
:4002000000F0A2FC6C4800F037FC0021012000F09BFC6A4800F030FC694800F061FB694C204600F05DFB684800F05AFB204600F057FB664800F054FB204600F051FB64488A
:4002400000F04EFB204600F04BFB624800F048FB204600F045FB604800F042FB204600F03FFB5E4800F03CFB204600F039FB5C4800F036FB204600F033FB5A4800F030FB74
:40028000204600F02DFB584800F02AFB204600F027FB564800F024FB204600F021FB544800F01EFB204600F01BFB524800F018FB204600F015FB504800F012FB204600F075
:4002C0000FFB4E4800F00CFB204600F009FB4C4800F006FB204600F003FB4A4800F000FB204600F0FDFA484800F0FAFA204600F0F7FA464800F0F4FA204600F0F1FA444876
:4003000000F0EEFA204600F0EBFA424800F0E8FA204600F0E5FA404800F0E2FA204600F0DFFA3E4800F0DCFA204600F0D9FA3C4800F0D6FA204600F0D3FA3A4B5A683A4BEE
:400340005B689A42F9DD394B1B78DBB2722B2AD1344B1B881BB240F2E33000FB03F000F053FC00F089FD002000F092FD00F0A2FD642303FB00F02E4A82FB00320244C0170E
:40038000C0EBE212284C238901331BB22381294D12B22949284601F07FFE284600F0A0FA636801336360214B1A781B78C5E700BFB9000000850000000C29000014290000EB
:4003C00020290000282900002C2900003C2900005429000084290000B0290000DC290000102A0000282A0000402A0000582A0000702A0000882A0000A02A0000B82A000031
:40040000D02A0000342B00009C2B0000042C00001C2C0000382C0000542C00006C2C0000742C0000CC80FF1F6C81FF1F3C92FF1F818080803092FF1F782C0000FEE700BF7E
:40044000F0B40022174611E050F82760F3B226F0FF0608E001EB420511F812406D78A5550132013BDBB2002BF4D10137222FEBD9F0BC704708B50A46002101F004FE08BD02
:40048000F8B5164B1B78DBB2154E3478E4B2154F3D78EDB203F00701134A11701B090132137044F00303337045F003033B7002220E4B1A7040230E4A1370023213702023FC
:4004C00002F21D221370033213700A2000F0B2FB3D7034704422074B1A70F8BDCF010049F8460040F94600406E5800400D510040015900407658004008B501F0B9FD08BDF4
:4005000038B50024344B1C80582202331A70012202331A80182331490B7002310A80304A13704FF49C71023211800232137004222C492D48FFF7E0FF02222C4B1A7008227A
:400540004FF040231A70032103F500731970284B1B78DBB227490B70274B1A8041F25122023B1A8019250CE0244B1B7803F0010343EA440404F003044FF4F07000F0CCFD41
:40058000013D0DB1032CEFD115B90320FFF756FF1B4B4FF480721A8007221A70002219490A704820023108701A700222033B1A7004220A331A70144A137843F00F03137007
:4005C000013A137843F001031370013A137843F08003137038BD00BF80400040864000408A400040AC0A0048004100400043004008010049A14600402242004025420040F2
:400600000440004006400040A243004038B572B6364A137843F00403137000240CE0344D630019194A0011462A44084691882858FFF720FF0134E4B2092CF0D900240CE0A4
:400640002B48A20011194B000344B3F84420196CD86BFFF751FF0134E4B2012CF0D925494FF09040FFF7ECFE234A137843F0020313701032137843F0020313701F4C23782D
:4006800043F040032370A2F58632513A137843F01003137008221A491A48FFF72DFF082219491A48FFF728FF082219491948FFF723FF0A2218491948FFF71EFF184A1378F4
:4006C00043F008031370174D61232B70FFF718FF81232B700122144B1A70FFF7D1FE0E2221461248FFF708FF38BD00BFE8460040842C00008C00004803500140A04300404E
:40070000880A004802510040900A0048C2510040980A004812510040A00A004830510040224300400048004004000840B043004008B501F071FC03680C2B00D1FEE7FEE7D3
:4007400008B5094B1A681044084BC31A802B02DC054B186005E001F05FFC0C2303604FF0FF32104608BD00BFD480FF1FD892FF1F08B5104E104D16E029686B68AC68002202
:4007800004E051F8040B43F8040B0432A242F8D1E868002203E0002143F8041B04328242F9D11035013E002EE6D101F03BFCFFF711FDFEE7010000009C2D000008B5104AE1
:4007C000104B1A60104A136843F40073136000230AE0032B03D80D4A52F8231000E00C490C4A42F8231001332F2BF2D90A4B1A780A4B1A70074A0A4B1A60FFF707FF08BD50
:400800000004FA050CED00E014ED00E000000000310700000080FF1FBC760040C080FF1F08ED00E07222074B1A702022013B1A7006225E3B1A70472210331A700022B23B78
:400840001A7070478665004010B500F06DFC04460A4A137843F020031370013A137843F010031370A2F58072137843F01003137000F0BAF9204600F05BFC10BD9665004028
:4008800008B5054B1B7823B9FFF7CCFF0122024B1A70FFF7D9FF08BD8081FF1F084B1B78DBB213F0200F06D0064A1078C0B213F01E0F02D17047002070470020704700BF63
:4008C0006565004046650040034B1B7813F0040FFAD1024B18707047656400404664004038B5074B1B782BB938BDFFF7EDFF0134A4B201E005460024285D0028F5D138BDF2
:400900008081FF1F10B50B4C237803F09F032370237803F0F00323702378184340F010002070012000F086F9237803F0EF03237010BD00BFC051004038B505460E4C237832
:4009400043F020032370237803F0BF032370002000F070F9237803F0F003237023781D4345F010052570012000F064F9237803F0EF03237038BD00BFC051004070B5354B19
:400980001A7802F08002D2B21A7033490A7802F0F00242F00F020A7001310A7802F0F0020A7001310A7802F0F0020A701A7802F0DF021A701A7842F040021A704FF4CA765E
:4009C000002000F037F9234D2B7843F010032B70012000F02FF9214B1C78E4B22B7803F0EF032B70002000F025F904F00804E4B22B7843F010032B70012000F01BF92B78C1
:400A000003F0EF032B7014B90A2000F013F9013E0CB1002ED4D10F4A137803F0BF031370137803F08003DBB213700232137803F0F00313700132137803F0F00343F00F0336
:400A400013700132137803F0F00343F00F03137070BD00BFC0510040C2510040C151004010B50446FFF78AFF2009FFF765FF04F00F00FFF761FF10BD38B505460078012499
:400A800004E0FFF7EDFF285D0134E4B20028F8D138BD00BF10B50446FFF770FF2009FFF731FF04F00F00FFF72DFF10BD08B5282000F0AAF80320FFF725FF052000F0A4F841
:400AC0000320FFF71FFF0F2000F09EF80320FFF719FF012000F098F80220FFF713FF052000F092F80620FFF7D5FF0E20FFF7D2FF2C20FFF7CFFF0820FFF7CCFF0120FFF77A
:400B0000C9FF0C20FFF7C6FF0320FFF7C3FF052000F07AF808BD00BF08B50C20FFF7BAFF0122014B1A7008BD8281FF1F08B5054B5B7823B9FFF7BAFF0122024B5A70FFF70E
:400B4000EBFF08BD8281FF1F08B5032819D8DFE800F002070D1381F08000FFF79BFF08BDA1F14000C0B2FFF795FF08BDA1F16C00C0B2FFF78FFF08BDA1F12C00C0B2FFF734
:400B800089FF08BD10B584B000238DF80E30092211E0144BA3FB0013DB081C4603EB83035900431ADBB2303304A9114401F80C3C2046013AD2B20928EBD80A4BA3FB00131C
:400BC000DB0803EB83035900431ADBB2303304A9114401F80C3C01AB9818FFF74DFF04B010BD00BFCDCCCCCC054A137843F0080313701032137843F008031370704700BF07
:400C0000A243004001BE704710B5044605E0084B186800F081FAA4F50044B4F5004FF6D8034B586800FB04F000F076FA10BD00BFD880FF1F08B5034B1B7A00FB03F000F067
:400C40006BFA08BDD880FF1F70B504460E46074B1D681F2802D90020FFF7D4FF04F01F04103455F8240045F8246070BD08ED00E038B504460D46072902D90020FFF7C2FF34
:400C80001F2C02D90020FFF7BDFF04F01F0000F1604000F564406D01EDB2057038BD00BF014B1B685864704708ED00E04001C0B2014B1870704700BF01E400E00222014B80
:400CC0001A60704700E100E00222014B1A60704780E100E010B50446FFF7F6FF2046FFF7DFFF0720FFF7E2FFFFF7E8FF10BD00BF08B50A280FD00C2802D0082806D102E0C8
:400D00004FF4805209E04FF4807206E00020FFF779FF002201E04FF480620021094B198042F2107303FB02F303F6C413064A82FB0302DB17C3EBE223044A1360044B19803C
:400D400008BD00BF4692FF1FAD8BDB684092FF1F4492FF1F10B500F0E7F904461E4A137843F0010313701032137843F0010313701A3A137843F0010313701032137843F0EE
:400D80000103137002F5AA521232137843F0030313701822114B1A70013B1A7842F040021A701A7802F0FC021A70CE22053B1A700222A3F597530C3B1A70094A137843F0F4
:400DC000080313700A20FFF735FF0122054B1A60204600F0ADF910BDAB43004006590040275B004080E200E010B504460A280DD00C2802D0082804D101E0C22207E0422251
:400E000005E00020FFF7FEFEC22200E08222034B1A702046FFF76CFF10BD00BF0259004008B5102000F054F807210020FFF720FF07490020FFF708FF064A137843F0060383
:400E400013700820FFF7D0FF0022034B1A8008BDCD0E0000015900404892FF1F08B5054B1B7823B9FFF7DCFF0122024B1A70FFF771FF08BD8481FF1F044B1A7802F0FB0261
:400E80001A701A7842F001021A7070470059004010B5074B1B7813F0010401D10028F8D024B10120FFF7C6FE014B1B78204610BD01590040034B1B78034A108800B2181A8D
:400EC00040B27047A05B00404492FF1F704700BF034B1A7800F0F80010431870704700BF02410040014B1B689864704708ED00E04001C0B2014B1870704700BF02E400E0EE
:400F00000422014B1A60704700E100E00422014B1A60704780E100E010B50446FFF7F6FF2046FFF7DFFF0720FFF7E2FFFFF7E8FF10BD00BF024A137843F080031370704707
:400F400070640040014B1880704700BF00680040014B1880704700BF80680040014B1880704700BF40680040014B1870704700BF81640040014B1878704700BF61640040D1
:400F8000014B188880B27047A068004008B501E0FFF7F6FFFFF7EEFF10F0100FF8D108BD10B5154A137803F0C00343F0090313702032137843F001031370104C237843F013
:400FC0000103237042F6E060FFF7BCFF42F6E060FFF7BEFF41F27070FFF7C0FF0020FFF7C3FF00F0A1F8237843F01003237000F09FF8FFF7CBFF10BD70640040916400400C
:4010000008B5054B1B7823B9FFF7CAFF0122024B1A70FFF78FFF08BD8581FF1F024A137843F080031370704772640040014B1870704700BF82640040014B1878704700BF6F
:4010400062640040014B1860704700BF02640040024B1B78024B1868704700BF0264004042640040014B1868704700BF42640040014B1860704700BF22640040014B1860EF
:40108000704700BF3264004008B501E0FFF7EAFFFFF7D2FF10F0400FF8D108BD08B5144A137803F0F80343F001031370137803F0FC0343F020031370FFF7E6FF6FF00100E4
:4010C000FFF7D6FF0020FFF7BDFF0020FFF7AEFFFFF7B2FF0120FFF7D1FF00F025F8054A137843F01003137000F022F808BD00BF726400409264004008B5054B1B7823B9FC
:40110000FFF7CCFF0122024B1A70FFF787FF08BD8681FF1F000000000230800803D000BF01380046FCD17047EFF3108072B6704780F31088704700BF38B500F0E9F820B3DC
:40114000124C4200E260000100F0D6F8238AA060E068584300F0D0F8A568E168228A002304E005EBC3046060013380188B42F8D3102000F0C1F8054C6061282000F0BCF8CB
:40118000A37CA06143F00203A37438BD4C92FF1F08B5436813B94FF0FF3008BD984708BDF8B5174C064694F85B10E56D69B960220127204600F02AF884F85B70E5653046D4
:4011C000FFF7E6FF00280EDA18E045B9602000F07DF8E06518B12946602200F017F8E46D002CE0D10AE0074B2660DA6F0132DA670323207184F85B7084F85A302046F8BD5F
:401200006892FF1F4C92FF1FFFF7CABF70B5034602E003F8011C013A1C4622B103F003050133002DF5D193081ED04FF001354D4308E044F8105C44F80C5C44F8085C44F883
:40124000045C043B032BA44604F11004F1DC1C46002603E04CF80650013B0436002BF9D102F003020CEB8404002302E0E154013A0133002AFAD170BD42780178431C42EA72
:4012800001205A789B7842EA002043EA00207047094A0A4BC11C10B5146821F0030118680919814201D9002010BD11609A685868013220189A6010BDD092FF1F8881FF1FC5
:4012C00008B5FFF7E5FF00B9FEE708BDFFF7E0BF30B1044A9368013B93600BB9024A1360704700BF8881FF1FD092FF1F014B5860196070478881FF1F38B50546FFF7E0FFFE
:40130000002104462A46FFF781FF204638BD000010B5084CA37C0BB1002010BD4FF40073238200F009F8A37C012043F00103A37410BD00BF4C92FF1F08B54FF480510348A2
:40134000FFF7D4FF0248FFF75FFF08BD9481FF1F1C2D00004FF6FF7070470000014B1868704700BF9491FF1F004870473C2D000000F016BD37B501220DF10701054600F05A
:4013800015FD9DF80740FF2C14BF0A240724284601220DF1070100F009FD9DF80700FF2803D1013CE4B2002CF1D13EBD37B50469857828460DF10701012200F0F7FC9DF8A3
:4013C00007300BB1002003E0013CF2D14FF0FF303EBD37B54FF0FF3305460C468DF8073006E028460DF10701012200F0EDFC013C002CF6DC3EBD000038B5094C2368032B51
:4014000002DD4FF0FF3509E0DDB2013323601420FFF772FF04EB850460608570284638BD9491FF1F08B5034B4FF400711B68984708BD00BFE880FF1F4FEAD20CACEBD10310
:40144000CCF10F0C10B501336044002410F801CB013B4CEA0424F9D101F00703511A02228A40DC40013A04EA020010BD7FB5130E85788DF80530130C01F03F018DF806301C
:40148000130A41F040018DF8073000238DF808208DF804101A4601A911F802C000215B00DBB283EA0C0E1EF0800F18BF83F009030131082904D04FEA4C0C5FFA8CFCEEE7A2
:4014C0000132052AE7D15B0043F001038DF809308678C4680122304603A900F067FC9DF80C30FF2B04D00CB9FF2009E0013CF1E7284601A9062200F067FC2846FFF73AFFDF
:4015000004B070BDF7B5847806460F4620460121FFF75FFF204600F0E5FB304609210022FFF7A4FF8DF8070028BBF6680546012220460DF1060100F039FC9DF80630FE2B55
:4015400006D0FC2B04D00135ADB2B542EFD112E00DF1070520463946102200F027FC29462046012200F022FC29462046012200F01DFC002500E0FF25204600F0BDFB204684
:401580000121FFF726FF2846FEBD00002DE9F04F9B46494B89B003EB800305925C684A02029103924FF00309029AA578E678039B2846022E08BF13461E4600F09DFB0121B6
:4015C0002846FFF706FFBBF1010F0CBF4FF0110A4FF0120A284600F085FB204651463246FFF744FF002851D1059F5E46A378E268B44604924FF000081E460FE00122304600
:401600000DF11F01CDF804C000F0D0FB9DF81F20DDF804C0FE2A05D008F10108049B9845ECD333E0284639464FF40072664600F0BDFB0222284607A900F0B8FB9DF81C30D2
:40164000384601939DF81D80FFF7ECFE4FF6FF729042019B0CD048EA0328404508D0BAF1120F13D120460C210022FFF7FFFE0DE0013E02D007F50077B8E7BAF1120F07D180
:4016800020460C213246FFF7F1FE01E04FF0FF36284600F031FB28460121FFF79AFE3EB1B9F1000F02D009F1FF397DE74FF0FF36304609B0BDE8F08F9491FF1F2DE9F04FCE
:4016C00099464C4B87B0029203EB80039DF840205D68009103926B78002B40F085804B0201930327009BAC78EE78019A2046022E08BF1A46164600F0FFFA01212046FFF7CA
:4017000068FEB9F1010F0CBF4FF0180A4FF0190A204600F0E7FA284651463246FFF7A6FE8DF81700002850D120460121FFF751FE029ECB46B8463046FFF774FE0DF1170752
:40174000BAF1180F0CBFFE23FC2301228DF817308DF81500030A394620468DF8143000F033FB204631464FF4007200F02DFB0222204605A900F028FB01222046394600F03D
:4017800015FB9DF8173003F01F03052B1CD12846FFF70CFEC0B9039A0AB906F50076BBF1010BC8D1BAF1190F474611D106A96FF00203204601F8013D012200F005FB28468F
:4017C000FFF7F4FD20B100E047464FF0FF3600E00026204600F090FA20460121FFF7F9FD26B10FB1013F7DE74FF0FF36304607B0BDE8F08F9491FF1F2DE9F04F877887B028
:40180000044638460D4600F06DFA20463A210022FFF72CFE064638B1384600F06DFA38460121FFF7D6FD58E00DF1140804224146384600F0BBFA4046FFF71EFD80463846C3
:4018400000F05AFA01213846FFF7C3FDB8F1000F28F07F02B8BF4FEA987BD2B240F272634FEA1828B8BF0BF0010B1FFA88F8002A14BF1A460022012111EA080F05D10136DF
:40188000F6B24900102E89B2F6D140F27260824233460DD06422724302F5FA6208E011EA080F07D049000133013689B2DBB2F6B20F2EF4D964214B434FF6FE7103F5FA6330
:4018C00002EA01014FF6FC72384603EA020200F049FA10F0FF0F40F099804FF0FF3092E028467E217F22FFF7A7FD8246EB78DFF82C8103F0030203F0780308EBD30358F8F8
:4019000022101B7C3846594389B200F001FA0646002877D06B7803F00702DB1003F00F0308EB82024344126A93F810800292B8F1000F67D0A978284603911C221A21FFF76A
:401940007BFD0190BAF1000F1FD1502153222846FFF772FD4FF0010909FA00F92F2131222846FFF769FD1FFA89F982463E21284649224FEA5929FFF75FFD0AF1020A09FA97
:401980000AF9013000FB09F910E0BAF1010F01D0012038E0284630214522FFF74DFD4FEA8029BBF1000F01D00223E37008FB06F2029B0399B2FBF3F2642303FB01225A43EA
:4019C0007343D208DB089A4294BFE260E360FA235E43019BF6089A400C21B24294BF2261266128460D22FFF727FD0546384600F08DF94FF4007128436070A180C4F80890B6
:401A0000002000E0FF2007B0BDE8F08FE378A778012B3FF465AF4FF0000A67E7D42C0000F0B5857887B004464FF4C871284600F06FF9B0F5C87F00F2CC804CF25033E36095
:401A40000026284600F058F90A212846FFF7C1FC624B93E8030001902846ADF8081000F041F9062201A9284600F0AEF92846FFF781FC0746284600F03FF901212846FFF713
:401A8000A8FC17F0010F03D10136052ED9D1A0E0284600F027F9082120464FF4D572FFF7E5FC10F0040F52D0284600F025F9A5784FF4FA66284600F015F9002237212046D8
:401AC000FFF7D4FC28460121FFF783FC292100222046FFF7CBFC0746284600F00DF928460121FFF776FC17B90123E3701EE017F0040F01D1013EDDD14FF4FA66284600F0C4
:401B0000F1F8012100222046FFF7B0FC0746284600F0F2F828460121FFF75BFC0FB9E77004E0012F55D1013EE8D152E001AD20462946FFF7E7FC00284BD120462946FFF710
:401B40005BFEC0B2002844D10123237043E00422A07805A900F02AF9284600F0CDF89DF81730AA2B35D19DF8163003F00F03012B2FD1A5784FF4FA66284600F0B3F80022B3
:401B800037212046FFF772FC28460121FFF721FC29214FF080422046FFF768FC0746284600F0AAF828460121FFF713FC0FB1013EE2D101AE20463146FFF7A4FC48B9012578
:401BC000E57020463146FFF717FEC0B208B9257001E04FF0FF3007B0F0BD00BF142D000010B5084B03EB80035C6823783BB9FFF7BFFB20B12046BDE81040FFF711BF4FF070
:401C0000FF3010BD9491FF1F38B51D46154BA1F57B7103EB80035C68072918D8DFE801F00A17171704041719204600211422FFF7EDFA0CE0237833B92046FFF7F1FE10B186
:401C40004FF0FF3038BDA3882B81A3686B60002038BD2046FFF73CFB024B00201A68013A1A6038BD9491FF1F10B580B9104B1B78EBB901240E4B1C7000F03AF921463B2051
:401C800000F052F900F026F900F016F910BD084B1B7863B90124064B1C7000F029F921463B2000F041F900F015F900F005F910BDA891FF1F08B550B9084600F0B7F800F059
:401CC000A9F810F0010FFAD000F0BCF808BD084600F0ACF800F09EF810F0010FFAD000F0B1F808BD08B510B900F08AF908BD002000F086F908BD00BF08B518B9012000F0F0
:401D00007FF908BD012000F07BF908BD0020704738B5B1F5C87F04D30D46B1F5FA7F03D804E04FF4C87501E04FF4FA756C00A4B245F6C053B3FBF4F448B900F0D9F8601E6A
:401D4000012180B200F0F0F800F0C4F808E000F0CFF8601E012180B200F0E6F800F0BAF8284638BD032809D840F6E44399420FD840F6E3439A420DD80020704740F6E443CB
:401D8000994209D840F6E3439A4207D8002070470020704701207047002070470120704708B5FFF761FF022008BD00BFF8B507460D4614466E1CFF213846FFF77BFF28708B
:401DC0003546013CF6D1F8BD70B5064614464D1C09783046FFF76EFF2946013CF7D170BD08B5FFF7A1F90A4A137843F02003137002F58072137843F010031370A2F2011297
:401E0000137843F010031370FFF792F908BD00BF98640040014B1878704700BF68650040014B1878704700BF67640040034B1B7813F0040FFAD0024B1870704768650040F7
:401E400048640040014B1878704700BF5864004008B501E00A4B1B780A4B1B7813F0200FF8D1FFF761F9084B1A7842F001021A701A7802F0FE021A70FFF75AF908BD00BFF0
:401E800058640040676400409864004008B50F22074B1A70FFF7DCFFFFF7BCFFFFF7C0FF0023044A1370A2F20112137008BD00BF886400408865004008B5054B1B7823B967
:401EC000FFF7E4FF0122024B1A70FFF789FF08BDA991FF1F054A137843F0010313701032137843F001031370704700BFA2430040054A137803F0FE0313701032137803F0AD
:401F0000FE031370704700BFA2430040014B188880B2704780400040024B187800F00700704700BF8240004070B505460E46FFF7F3FF0446FFF7EAFFA84256D02B4B1B7873
:401F400003F0010294B900B185B938B9284B1D80284A137803F0BF03137070BD254A137843F040031370224B1D8070BD22B3002321490B7001240F310C7004310B700C39EF
:401F80000B7803F07F030B701A4B1B7813F0080F00D08DB9194B18800721013B1970164B1B7813F0010FFAD110490B7803F0FE030B700021104B19700C4B1B7813F0010F7E
:401FC0000DD00E4B1D800EB1032200E001220A4B1A70094B1B7813F0010FFAD170BD044B1D8002490B7813430B7070BDA24300408040004082400040014000400240004074
:40200000044A137803F0EF03000100F0100018431070704710510040014B1868704700BF4C81FF1F0E4B70B51E460E4C0025E41AA410A54204D056F8253098470135F8E71C
:4020400000F09AFE084B094C1E46E41AA4100025A54204D056F8253098470135F8E770BD842D0000842D0000842D00008C2D000010B5431E0A44914204D011F8014B03F83F
:40208000014FF8E710BD03460244934202D003F8011BFAE7704700000EB400B54FF402719CB0ADF814106FF00041049107914FF6FF711DAB02900690084853F8042BADF81C
:4020C0001610006802A9019300F064F8029B00221A701CB05DF804EB03B070474C81FF1F2DE9F0478E6882469E420C46914698463ED88A8912F4906F3AD0256809690223CB
:402100006F1A656905EB450595FBF3F57B1C43449D4238BF1D4653050FD5294600F040FB064698B13A462169FFF7A2FFA38923F4906343F08003A38113E02A4600F08EFB47
:40214000064670B92169504600F0DEFA0C23CAF80030A3894FF0FF3043F04003A381BDE8F08726613E44266046466561ED1BA560464528BF464649463246206800F0A8FA84
:40218000A36800209B1BA36023681E442660BDE8F08700002DE9F04F9DB003938B8980461C060D4616460DD50B695BB9402100F0F7FA2860286118B90C23C8F80030CDE06F
:4021C00040236B610023099320238DF82930DFF89CB130238DF82A3037463C4614F8013B1BB9B7EB060910D003E0252BF9D02746F3E74B46324629464046FFF771FF0130F6
:4022000000F0A780099B4B4409933B78002B00F0A08000234FF0FF3204930793059206938DF853301A930126052221784E4800F041FA671C049B38B14B4A3C46801A06FABD
:4022400000F018430490EFE7D90644BF20228DF853201A0744BF2B228DF8532022782A2A03D0079A00210A200BE0039A111D12680391002A10DA524243F0020007920490A9
:402280000BE027463B780134303B092B03D800FB02320121F5E701B107923B782E2B1ED17B782A2B0AD1039B02371A1D1B680392002BB8BF4FF0FF33059310E0002319468B
:4022C0000593781C0A2407463A780130303A092A03D804FB01210123F5E703B1059103223978224800F0E6F940B14023CBEB000003FA00F0049B01371843049039780622CC
:402300001B487E1C8DF8281000F0D4F988B1194B33B9039B073323F007030833039314E003AB00932A46144B04A94046AFF3008007E003AB00932A460F4B04A9404600F069
:4023400093F8B0F1FF3F824603D0099B5344099342E7AB895B0601D4099801E04FF0FF301DB0BDE8F08F00BF422D0000482D00004C2D000000000000E12000002DE9F047A3
:4023800091461F460A698B6806469342B8BF1346C9F8003091F843200C46DDF8208012B10133C9F800302368990642BFD9F800300233C9F80030256815F0060510D104F139
:4023C000190A07E00123524639463046C04701301AD00135E368D9F800209B1A9D42F1DB94F843302268003318BF012392060FD5E118302081F843005A1C94F84510224439
:40240000023382F8431003E04FF0FF30BDE8F08704F1430239463046C0470130F4D02268D9F80050E36802F00602042A08BF5D1B2269A3680CBF25EAE57500259342C4BF5E
:402440009B1AED184FF000091A344D4509D00123224639463046C0470130D5D009F10109F3E70020BDE8F0872DE9F04317460A7E85B06E2A984606460C460C9B01F1430EC8
:4024800000F0AE8011D8632A22D009D8002A00F0BB80582A40F0CA8081F84520834955E0642A1ED0692A1CD0C0E0732A00F0B08009D86F2A2ED0702A40F0B8800A6842F00F
:4024C00020020A603EE0752A24D0782A3AD0ADE01A6801F14205111D1960136884F84230A8E021681A6811F0800F02D0111D196008E011F0400F02F10401196002D0B2F9D9
:40250000003000E01368002B3CDA2D225B4284F8432037E021681A6811F0800F02D0111D196007E011F0400F02F10401196001D0138800E01368227E5C496F2A14BF0A228D
:4025400008221BE078225A4984F845202268186812F0800F00F104051D6003D1550601D5038800E00368D00744BF42F0200222601BB9226822F0200222601022002084F899
:40258000430001E049490A226568002DA56008DB206820F0040020602BB9002D7DD175460CE0002B79D07546B3FBF2F002FB1033CB5C05F8013D03460028F5D1082A0BD18F
:4025C0002368DA0708D5236962689A42DEBF302305F8013C05F1FF35C5EB0E0323612EE008681A6810F0800F496903D0101D1860136808E010F0400F02F104001860136872
:4026000001D0198000E0196000232361754616E01A68111D1960156800216268284600F049F808B1401B6060636804E004F1420584F8422001232361002384F84330CDF833
:4026400000803B4603AA21463046FFF797FE013002D14FF0FF3026E023692A4639463046C0470130F5D023689B0710D5002504F1190907E001234A4639463046C0470130C8
:40268000E7D00135E368039A9B1A9D42F2DBE068039B9842B8BF184605E00B7804F1420584F842308AE705B0BDE8F083532D0000642D000010B5C9B202449042034605D0F8
:4026C0001C7801308C42F8D1184610BD002010BD884210B501EB020301D8421E0BE09842FBD28118D21AD34204D013F8014D01F8014DF8E710BD994204D011F8014B02F863
:40270000014FF8E710BD000038B50546002944D051F8043C0C1F002BB8BFE41800F0D4F81E4A1368114613B96360146030E0A3420DD92268A018834201BF18685B681218CE
:40274000226063600C6023E0A24203D813465A68002AF9D118681918A1420BD12168014458188242196013D110685268014419605A600DE002D90C232B6009E021686018F2
:40278000824201BF106852680918216062605C602846BDE8384000F098B838BDB091FF1F70B5CD1C25F0030508350C2D38BF0C25002D064601DBA94202D90C23336046E058
:4027C00000F082F8234B1C681A462146A1B10B685B1B0ED40B2B03D90B60CC18CD501EE08C420BBF63684B681360636018BF0C4615E00C464968E9E7174C23681BB93046A8
:4028000000F052F820602946304600F04DF8431C18D0C41C24F00304A0420DD12560304600F053F804F10B00231D20F00700C31A0ED05A42E25070BD211A304600F034F8B2
:402840000130EBD10C233360304600F03EF8002070BD00BFB091FF1FAC91FF1FF8B5074615460E4621B91146BDE8F840FFF798BF1AB9FFF749FF2846F8BD00F027F8854239
:402880000ED929463846FFF78BFF044650B131462A46FFF7EDFB31463846FFF735FF01E03046F8BD2046F8BD38B5064C0023054608462360FDF744FF431C02D1236803B148
:4028C0002B6038BDD492FF1F7047704751F8040C0028BEBF091851F8043CC01804387047000000006461746F732E747874000000536920657363726962696F004E6F2065DC
:402900007363726962696F00720000007420746F74616C0074206D7565737472610000002A2E6B776C0000000D000000636C6561725F70616E656C28290000007365745FC8
:40294000677269645F73697A652831372C313029000000006164645F7465787428302C322C6D656469756D2C4C2C6D756573747261732C3234352C3234302C3234352C29E4
:40298000000000006164645F7465787428302C312C6D656469756D2C4C2C7469656D706F2C3234352C3234302C3234352C2900006164645F7465787428302C332C6D65642B
:4029C00069756D2C4C2C73746172742C3235352C3235352C3235352C290000006164645F7465787428382C302C786C617267652C4C2C70726F796563746F20426C75657420
:402A00006F6F74682C302C3235352C302C2900006164645F627574746F6E2831362C312C32312C312C3429006164645F627574746F6E2831362C322C32322C322C352900F9
:402A40006164645F627574746F6E2831362C332C32332C332C3629006164645F627574746F6E2831362C342C372C4F2C6F2900006164645F627574746F6E28382C362C31D1
:402A8000342C722C722900006164645F627574746F6E2831342C362C31352C592C5929006164645F627574746F6E28322C362C31362C472C472900006164645F62757474DC
:402AC0006F6E28322C332C31372C422C422900006164645F726F6C6C5F67726170682831322C372C352C302E302C3130302E302C3130302C742C766F6C74616A652C582DA2
:402B0000417869732C592D417869732C302C302C312C302C302C312C6D656469756D2C6E6F6E652C312C312C34322C39372C3232322900006164645F726F6C6C5F67726159
:402B4000706828362C372C352C31302E302C34302E302C3130302C472C74656D70657261747572612C582D417869732C592D417869732C302C302C312C302C302C312C6D2C
:402B8000656469756D2C6E6F6E652C312C312C34322C3235352C3029000000006164645F726F6C6C5F677261706828302C372C352C302E302C3130302E302C3130302C768A
:402BC0002C76656C6F6369646164206D6F746F722C582D417869732C592D417869732C312C302C312C302C312C312C6D656469756D2C6E6F6E652C312C312C3235352C308D
:402C00002C3029006164645F6D6F6E69746F7228372C312C382C2C31290000006164645F73656E645F626F7828322C312C332C2C6D2C6A29000000006164645F73656E6407
:402C40005F626F7828322C322C332C2C6D2C6629000000007365745F70616E656C5F6E6F746573282C2C2C290000000072756E28290000002A0000002A4725642C25642A54
:402C800000000000205100401000405100403000F0510040100000000140000880080140800700140140000280160140800500400140000A004C01400002005001402000AA
:402CC0000008014088090048800000160140080A004880000A00000064000000E803000010270000000A0C0D0F14191E23282D32373C41508096980040420F00A0860100E0
:402D000010270000E8030000640000000A00000001000000400000000095000069130000F91300008D150000BD160000091C0000E11B0000711300005D1300006D6D6300DE
:402D40004300232D302B2000686C4C006566674546470030313233343536373839414243444546003031323334353637383961626364656600000000F8B500BFF8BC08BC39
:402D80009E4670474D000000BD070000F8B500BFF8BC08BC9E46704729000000B02D0000C880FF1F880000008811000000000000000000000100010006000000D892FF1FCB
:402DC0000000E02EC05D00001800000000366E01551300000000000000000000000000000000000000000000000000000000000000000000402D0000000000000000000016
:402E000000000000000000000000000000000000000000000000000000000000000000000000000000000000000000000000000000000000EC80FF1F000000000000000008
:402E40000000000000000000000000000000000000000000000000000000000000000000000000000000000000000000000000000000000000000000000000000000000052
:402E80000000000000000000000000000000000000000000000000000000000000000000000000000000000000000000000000000000000000000000000000000000000012
:402EC00000000000000000000000000000000000000000000000000000000000000000000000000000000000000000000000000000000000000000000000000000000000D2
:402F00000000000000000000000000000000000000000000000000000000000000000000000000000000000000000000000000000000000000000000000000000000000091
:020000040003F7
:0200000480007A
:400000000452004004640040026500405B0001403001014061020140380301406C04014046050140490601404A0701401108014037090140020B0140040C0140010D014085
:400040004814014049150140191601405017014041180140401901400F1B0140034001400841014002420140044301400246014001470140024801400A490140084C0140AC
:40008000024D014007500140015101400860092018021C01810D8277850F880F853886720204030407030E0215011F04260228042E013002330234043504360137013E10DE
:4000C0004010410449FF4AFF4BFF4DA04F0450185280580459045A045B045C115D115F01604062C06440654066C068C06AC06CC06EC0820483088D028E028F049302990493
:400100009B029E019F04A301AD01AE04B001B101B202B306B404B508BE10BF05C050C104C5D0C721C832C9FFCAFFCBFFCDAFCE0FCF04D018D405D804D904DA04DB04DC22FD
:40014000DD11DF01E040E2C0E440E540E6C0E8C0EAC0ECC0EEC0000201800481088009800C80100211281602188119C01A461C041E201F01200821882510260827802C8075
:400180002F013148361037423A063C023E404001430245014D014E015505560657025C845D017002C099C280C487CA90CCBACE93D089D210D6D00406060808140A080E0156
:4001C0001301140616181A101C061E082201260A2801321E330134013A083E1040214104420649FF4AFF4BFF4DA04F01501852985417580459045A045B045C235D225F01D5
:400200006040628064406540668068406A506BA86C406D206E506FA8850C860687038A018B038F089A059B0C9E03A406A501A601A706AD01AE02AF0EB50FB607BA80BB20F7
:40024000C025C104C206C9FFCAFFCBFFCDAFCE07CF01D018D804D904DA04DC33DD02DF01E040E280E440E540E680E840EA50EBA8EC40ED20EE50EFA80314062007090A01B7
:400280000B080C100D080E01114013081680172419401A011D2C1F04200C2308272029443010331037013884395041224522460248014A084E085D205E045F8066486704E9
:4002C0006F4076807702870192049B809F42A208A481AC04C0E6C2E3C475CA0ACC84CE0ED0B5D22CD670D87004100510070C0A080C060D1010011202140116041703181897
:4003000019091B101C18210C23112402251C260127022D14331F3418360738A03E1040254104420649FF4AFF4BFF4DAF4E074F015018580459045A045C305D025F0160400A
:40034000628064406540668068406A506BA86C406D206E506FA88602870289048A028F0198029C02A102A602A701A801A902B002B306B401B501B908BE11BF10C021C104D5
:40038000C206C55CC620C70EC83BC9FFCAFFCBFFCDAFCE07CF01D018D401D804D904DA04DB04DC30DD32DF01E040E280E440E540E680E840EA50EBA8EC40ED20EE50EFA8B8
:4003C00000280198030405080704081809100A830B080C100E0111081420162419901E44210C26102710284029082B012C402D042E012F043108331038803B083C283D8091
:4004000041224522460248014A084C804E084F045401561A5C205E445F0165206610920193089480951097049D209E2A9F14A004A122A208A481AE48B102C067C2CFC464E3
:40044000CAEBCC06CE7AD0B5D22CD6F0000F0403060C070108021101120314011501180C1A031C0F1F01200324042502280C29022C082D023102340F370139803AA0402374
:40048000410546C047BE483849FF4AFF4BFF4EF04F44500C580459045A045C335D035F0166C06A406B02820184018580880189488B038C0192019301950497239B7C9D11FF
:4004C0009F02A801AB02AD70B180B201B370B50FBE04BF05D440D804D904DB04DF010008028A0414074008020D020E060F20111014041602170919041C041E0A2040212045
:400500002320254229A02C202E402F083121324436053740382039083E04451047044E0156245701600261046220840485018610870489128B408C408E20910892029480A8
:400540009504968099909B049C089E24A110A210A410A544A701AA04AB01C07FC2F8C4F2CA7CCCDFCE46D060D210D80EE240E602EE0480028204840D88028A0D8C0D900D04
:4005800098029A089C0DA001A202A80DB20FBA08D804DF01001203110406054006080A490E221048144015081602171018101C021DC02401251027202E402F883440360874
:4005C00037113C023D203E204440458047204D044E4A4F085501568866206C596E636F987602770187088A088B808D01C0FFC2ABC4FACAB0CCF0CEA0D0B0D230D820E2B02F
:40060000EE04B202EE20B902BF01D904DF01220200010202030C0401080109040C010D08110C1403150417081802190C1A011D011E011F02210C24022601280129012B0E2F
:400640002F0F3203370F3A08580459045F018204846785018618870688408C609104926394249680981C99029A629C7F9D069F01A010A107A408A506A701A818A906AC1C01
:40068000AE61AF01B080B107B41FB660BA20BB02D418D604D804D904DB04DC33DD30DF01000A011002020454050109040A080B020C400D020E460F2012181414174A182047
:4006C0001C011D011E04200222402740280829822C442E64324A332034103742382039023A103B403C045C01660267098010820283108401905491129208934B9684980897
:4007000099829A209B0A9F40A004A106A20BA320A710A810A984AB20AE01C0FFC2F7C4F6CAFDCCBFCE4DD680D8B0E004E408E809EA048C01900198019E02B002B601BE40A5
:40074000C006C604C9FFCA07CBFFCC40CD20CEF0CF05D008D804DA04DD03DF01E040E1A8E240E3200180045405040610070108800A880C400D800E060F2012801301175494
:4007800019011A011C511D2026A02C442E243504362037423D023E8845A34610481049104D044E01504056805C016C206E406F1C762A770A8621900491129208934A94B0F4
:4007C000950496C4988899129B209C049D019E029F49A004A102A20BA320A430A504A718A802AA88AB21AC08AE06B080B120C0E1C2EBC4E0CAE0CCF0CED0D0F0D214D680C4
:40080000EA06EE0D00040404079F08040B600C010D900E440F40100211C013011410157F1780182019C01B041C041FFF200421C023022448251F26012720281C29C02A21E5
:400840002B082C022D80307D31FF32023601380A3E413F015409580459045B045F018104860389048A018D04910497059D039E05A107A702A806AB04AD04B207B307BB0C88
:40088000D804D904DF01001003200426054009800EA20F0812081518178118101C201EA01F402104220C278028602A082B0A2FAA31403204330135403608371138A23C207F
:4008C0003E403F084BC05C215E045F4066408A0290A3924094049508960899409A889B119C40A180A201A38CA60AA811AA40AD40AF01B104C0F6C2F1C4F2CAFFCCFBCE7D8B
:40090000D6F0D810EA2080048302844085108720940495109C40A722A810AA08AE40B284E801EC0133283510CC70021086109D10A720AF08C010E040EE409D10A7208F8060
:400940009D10AB20EE201B04C608AB049D10A38003405780811083409D10A380C010D440E480E6200D105F0164808910C201D601D801E604A880AB01000F080E0A0D0C0185
:4009800010091A091C01003F06030004020000000404000309000600000800000005060200080000060100060708080001000E0002080400060000080000000800070F08E4
:4009C00080000020000000441604200005DB0EFC37FFFFFF2200F008040000000000022404040404000000010000C00040011011C0010011400140010000000000000000F0
:400A0000000000000000000000000001080200002400910001004608000400001201A10608000008080600010007000037070000370600000800000007003000C007080832
:400A4000000000000000504034010500020E0C0005FFFFFF62A0F0410C000000000002130404040433330001000000000000400200103010001010120000000000000000FF
:400A800000000000000000000100000000000200007F7F0000000000807B7B006000000002000102020002000000000013001801000000000000000000000000000000002A
:400AC00000000000000000000000000000000000000000000000000000000000000000000000000000000000000000000000000000000000000000000000000000000000F6
:400B000000000000000000000000000000000000000000000000000000000000000000000000000000000000000000000000000000000000000000000000000000000000B5
:400B40000000000000000000000000000000000000000000000000000000000000000000000000000000000000000000000000000000000000000000000000000000000075
:400B80000000000000000000000000000000000000000000000000000000000000000000000000000000000000000000000000000000000000000000000000000000000035
:0200000490006A
:0400000000004005B7
:0200000490105A
:04000000BC90ACAF55
:0200000490303A
:02000000549B0F
:0200000490402A
:4000000000000000000000000000000000000000000000000000000000000000000000000000000000000000000000000000000000000000000000000000000000000000C0
:400040000000000000000000000000000000000000000000000000000000000000000000000000000000000000000000000000000000000000000000000000000000000080
:400080000000000000000000000000000000000000000000000000000000000000000000000000000000000000000000000000000000000000000000000000000000000040
:4000C0000000000000000000000000000000000000000000000000000000000000000000000000000000000000000000000000000000000000000000000000000000000000
:0200000490501A
:0C00000000012E16106900012E2A650474
:00000001FF