:4000000000800020110000009D0500009D05000008B5044B1A6803F53F5302331A6000F0DDFA00BFFA46004010B5054C237833B9044B13B10448AFF300800123237010BD5C
:400040005081FF1F00000000B8240000084B10B51BB108490848AFF300800848036803B910BD074B002BFBD0BDE81040184700BF000000005481FF1FB8240000C880FF1F3A
:400080000000000008B500F03FFB014B187008BD2C92FF1F10B562B6694800F023FD00F025FB00F07DFC00F037FE00F0DFFD0021084600F083FC634800F014FC624800F0B9
:4000C00045FB624C204600F041FB614800F03EFB204600F03BFB5F4800F038FB204600F035FB5D4800F032FB204600F02FFB5B4800F02CFB204600F029FB594800F026FBAA
:40010000204600F023FB574800F020FB204600F01DFB554800F01AFB204600F017FB534800F014FB204600F011FB514800F00EFB204600F00BFB4F4800F008FB204600F05F
:4001400005FB4D4800F002FB204600F0FFFA4B4800F0FCFA204600F0F9FA494800F0F6FA204600F0F3FA474800F0F0FA204600F0EDFA454800F0EAFA204600F0E7FA43486F
:4001800000F0E4FA204600F0E1FA414800F0DEFA204600F0DBFA3F4800F0D8FA204600F0D5FA3D4800F0D2FA204600F0CFFA3B4800F0CCFA204600F0C9FA394800F0C6FA73
:4001C000204600F0C3FA374800F0C0FA204600F0BDFA354800F0BAFA204600F0B7FA334B1B78722B1ED100F04FFD002000F058FD00F068FD642202FB00F02D4A82FB003262
:400200000244C017C0EBE2122A490B8801331BB20B80294C12B22949204601F029FD204600F094FA264BB3F9000000F0F5FB0021084600F0C3FB1D4B187800F061FBCEE751
:4002400085000000E8240000F4240000FC2400000025000010250000282500005825000084250000B0250000E4250000FC250000142600002C260000442600005C26000071
:40028000742600008C260000A42600000827000070270000D8270000F0270000082800002028000038280000402800002C92FF1F818080806C81FF1F2092FF1F44280000E8
:4002C000CC80FF1FFEE700BFF0B40022174611E050F82760F3B226F0FF0608E001EB420511F812406D78A5550132013BDBB2002BF4D10137192FEBD9F0BC704708B50A4658
:40030000002101F0ACFC08BDF8B5164B1B78DBB2154E3478E4B2154F3D78EDB203F00701134A11701B090132137044F00303337045F003033B708023A2F26272137040224D
:400340000C490A7002310A700B4A137020220B4B1A700A2000F076FB3D7034704422084B1A70F8BDCF010049F8460040F94600406E58004001590040205B0040235B004004
:400380007658004008B501F05FFC08BD38B500242F4B1C80582202331A704FF49C7202331A80182202331A7004222A492A48FFF7E9FF0222294B1A7008224FF040231A7087
:4003C000032103F500731970254B1B78DBB225490B70254B1A8041F25122023B1A8019250CE0224B1B7803F0010343EA440404F003044FF4F07000F07FFC013D0DB1032C1B
:40040000EFD115B90320FFF75DFF194B4FF480721A8007221A70002216490A704820023108701A700222033B1A7004220A331A70114A137843F003031370013A137843F0C7
:4004400001031370013A137843F08003137038BD80400040C4060048004100400043004008010049A146004022420040254200400440004006400040A243004038B572B6E3
:40048000354A137843F00403137000240CE0334D630019194A0011462A44084691882858FFF72CFF0134E4B2082CF0D900240BE02A49A3001819420088188022C16B806B80
:4004C000FFF760FF0134E4B2002CF1D024494FF09040FFF7F9FE234A137843F0020313701032137843F0020313701F4C237843F040032370A2F58632513A137843F0100391
:400500001370082219491A48FFF73CFF082219491948FFF737FF082218491948FFF732FF0A2218491848FFF72DFF184A137843F008031370164D61232B70FFF727FF8123EE
:400540002B700122134B1A70FFF7DEFE0E2221461148FFF717FF38BDE8460040502800006800004803500140A0430040A006004802510040A8060048C2510040B0060048FD
:4005800012510040B806004830510040224300400048004004000840B043004008B501F027FB03680C2B00D1FEE7FEE708B5094B1A681044084BC31A802B02DC054B1860B0
:4005C00005E001F015FB0C2303604FF0FF32104608BD00BFD080FF1FC892FF1F08B5104E104D16E029686B68AC68002204E051F8040B43F8040B0432A242F8D1E868002270
:4006000003E0002143F8041B04328242F9D11035013E002EE6D101F0F1FAFFF73BFDFEE7010000005C29000008B5104A104B1A60104A136843F40073136000230AE0032BA1
:4006400003D80D4A52F8231000E00C490C4A42F8231001332F2BF2D90A4B1A780A4B1A70074A0A4B1A60FFF709FF08BD0004FA050CED00E014ED00E0000000009D05000072
:400680000080FF1FBC760040C080FF1F08ED00E07222074B1A702022023B1A700622623B1A70472210331A700022AD3B1A7070478865004010B500F027FB04460A4A137881
:4006C00043F020031370023A137843F010031370FF3A137843F01003137000F08DF9204600F016FB10BD00BF9865004008B5054B1B7823B9FFF7CCFF0122024B1A70FFF731
:40070000D9FF08BD7881FF1F084B1B78DBB213F0200F06D0064A1078C0B213F01E0F02D17047002070470020704700BF6665004046650040034B1B7813F0040FFAD1024B14
:4007400018707047676400404764004038B5074B1B782BB938BDFFF7EDFF0134A4B201E005460024285D0028F5D138BD7881FF1F10B50B4C237803F09F032370237803F0F0
:40078000F00323702378184340F010002070012000F058F9237803F0EF03237010BD00BFC051004038B505460E4C237843F020032370237803F0BF032370002000F042F957
:4007C000237803F0F003237023781D4345F010052570012000F036F9237803F0EF03237038BD00BFC051004070B5354B1A7802F08002D2B21A7033490A7802F0F00242F0E6
:400800000F020A7001310A7802F0F0020A7001310A7802F0F0020A701A7802F0DF021A701A7842F040021A704FF4CA76002000F009F9234D2B7843F010032B70012000F0F0
:4008400001F9214B1C78E4B22B7803F0EF032B70002000F0F7F804F00804E4B22B7843F010032B70012000F0EDF82B7803F0EF032B7014B90A2000F0E5F8013E0CB1002EA5
:40088000D4D10F4A137803F0BF031370137803F08003DBB213700232137803F0F00313700132137803F0F00343F00F0313700132137803F0F00343F00F03137070BD00BF7A
:4008C000C0510040C2510040C151004010B50446FFF78AFF2009FFF765FF04F00F00FFF761FF10BD38B505460078012404E0FFF7EDFF285D0134E4B20028F8D138BD00BF3B
:4009000008B5FFF7E3FF08BD10B50446FFF76CFF2009FFF72DFF04F00F00FFF729FF10BD08B5282000F078F80320FFF721FF052000F072F80320FFF71BFF0F2000F06CF8E1
:400940000320FFF715FF012000F066F80220FFF70FFF052000F060F80620FFF7D5FF0E20FFF7D2FF2C20FFF7CFFF0820FFF7CCFF0120FFF7C9FF0C20FFF7C6FF0320FFF78B
:40098000C3FF052000F048F808BD00BF08B50C20FFF7BAFF0122014B1A7008BD7A81FF1F08B5054B5B7823B9FFF7BAFF0122024B5A70FFF7EBFF08BD7A81FF1F08B50328E2
:4009C00019D8DFE800F002070D1381F08000FFF79BFF08BDA1F14000C0B2FFF795FF08BDA1F16C00C0B2FFF78FFF08BDA1F12C00C0B2FFF789FF08BD054A137843F002030F
:400A000013701032137843F002031370704700BFA243004001BE704710B5044605E0084B186800F069F9A4F50044B4F5004FF6D8034B586800FB04F000F05EF910BD00BF0E
:400A4000D480FF1F08B5034B1B7A00FB03F000F053F908BDD480FF1F70B504460E46074B1D681F2802D90020FFF7D4FF04F01F04103455F8240045F8246070BD08ED00E0CF
:400A800038B504460D46072902D90020FFF7C2FF1F2C02D90020FFF7BDFF04F01F0000F1604000F564406D01EDB2057038BD00BF014B1B685864704708ED00E04001C0B295
:400AC000014B1870704700BF01E400E00222014B1A60704700E100E00222014B1A60704780E100E010B50446FFF7F6FF2046FFF7DFFF0720FFF7E2FFFFF7E8FF10BD00BF08
:400B000008B50A280FD00C2802D0082806D102E04FF4805209E04FF4807206E00020FFF779FF002201E04FF480620021094B198042F2107303FB02F303F6C413064A82FBD4
:400B40000302DB17C3EBE223044A1360044B198008BD00BF3692FF1FAD8BDB683092FF1F3492FF1F10B500F0CFF804461E4A137843F0010313701032137843F0010313707F
:400B80001A3A137843F0010313701032137843F00103137002F5AA521232137843F0030313701822114B1A70013B1A7842F040021A701A7802F0FC021A70CE22053B1A70E5
:400BC0000222A3F597530C3B1A70094A137843F0080313700A20FFF735FF0122054B1A60204600F095F810BDAB43004006590040275B004080E200E010B504460A280DD0FF
:400C00000C2802D0082804D101E0C22207E0422205E00020FFF7FEFEC22200E08222034B1A702046FFF76CFF10BD00BF0259004008B5102000F054F807210020FFF720FFEE
:400C400007490020FFF708FF064A137843F0060313700820FFF7D0FF0022034B1A8008BDDD0C0000015900403892FF1F08B5054B1B7823B9FFF7DCFF0122024B1A70FFF709
:400C800071FF08BD7C81FF1F044B1A7802F0FB021A701A7842F001021A7070470059004010B5074B1B7813F0010401D10028F8D024B10120FFF7C6FE014B1B78204610BDB3
:400CC00001590040034B1B78034A108800B2181A40B27047A05B00403492FF1F704700BF034B1A7800F0F80010431870704700BF02410040000000000230800803D000BF8A
:400D000001380046FCD17047EFF3108072B6704780F31088704700BF38B500F0E9F820B3124C4200E260000100F0D6F8238AA060E068584300F0D0F8A568E168228A00233F
:400D400004E005EBC3046060013380188B42F8D3102000F0C1F8054C6061282000F0BCF8A37CA06143F00203A37438BD3C92FF1F08B5436813B94FF0FF3008BD984708BD82
:400D8000F8B5174C064694F85B10E56D69B960220127204600F02AF884F85B70E5653046FFF7E6FF00280EDA18E045B9602000F07DF8E06518B12946602200F017F8E46D2E
:400DC000002CE0D10AE0074B2660DA6F0132DA670323207184F85B7084F85A302046F8BD5892FF1F3C92FF1FFFF7CABF70B5034602E003F8011C013A1C4622B103F0030532
:400E00000133002DF5D193081ED04FF001354D4308E044F8105C44F80C5C44F8085C44F8045C043B032BA44604F11004F1DC1C46002603E04CF80650013B0436002BF9D1F0
:400E400002F003020CEB8404002302E0E154013A0133002AFAD170BD42780178431C42EA01205A789B7842EA002043EA00207047094A0A4BC11C10B5146821F003011868C2
:400E80000919814201D9002010BD11609A685868013220189A6010BDC092FF1F8081FF1F08B5FFF7E5FF00B9FEE708BDFFF7E0BF30B1044A9368013B93600BB9024A136027
:400EC000704700BF8081FF1FC092FF1F014B5860196070478081FF1F38B50546FFF7E0FF002104462A46FFF781FF204638BD000010B5084CA37C0BB1002010BD4FF400734A
:400F0000238200F009F8A37C012043F00103A37410BD00BF3C92FF1F08B54FF480510348FFF7D4FF0248FFF75FFF08BD8C81FF1FDC2800004FF6FF7070470000014B186867
:400F4000704700BF8C91FF1F00487047FC28000000F016BD37B501220DF10701054600F015FD9DF80740FF2C14BF0A240724284601220DF1070100F009FD9DF80700FF28F5
:400F800003D1013CE4B2002CF1D13EBD37B50469857828460DF10701012200F0F7FC9DF807300BB1002003E0013CF2D14FF0FF303EBD37B54FF0FF3305460C468DF8073027
:400FC00006E028460DF10701012200F0EDFC013C002CF6DC3EBD000038B5094C2368032B02DD4FF0FF3509E0DDB2013323601420FFF772FF04EB850460608570284638BDBE
:401000008C91FF1F08B5034B4FF400711B68984708BD00BFE480FF1F4FEAD20CACEBD103CCF10F0C10B501336044002410F801CB013B4CEA0424F9D101F00703511A022271
:401040008A40DC40013A04EA020010BD7FB5130E85788DF80530130C01F03F018DF80630130A41F040018DF8073000238DF808208DF804101A4601A911F802C000215B0076
:40108000DBB283EA0C0E1EF0800F18BF83F009030131082904D04FEA4C0C5FFA8CFCEEE70132052AE7D15B0043F001038DF809308678C4680122304603A900F067FC9DF8EA
:4010C0000C30FF2B04D00CB9FF2009E0013CF1E7284601A9062200F067FC2846FFF73AFF04B070BDF7B5847806460F4620460121FFF75FFF204600F0E5FB304609210022A6
:40110000FFF7A4FF8DF8070028BBF6680546012220460DF1060100F039FC9DF80630FE2B06D0FC2B04D00135ADB2B542EFD112E00DF1070520463946102200F027FC2946A5
:401140002046012200F022FC29462046012200F01DFC002500E0FF25204600F0BDFB20460121FFF726FF2846FEBD00002DE9F04F9B46494B89B003EB800305925C684A02B9
:40118000029103924FF00309029AA578E678039B2846022E08BF13461E4600F09DFB01212846FFF706FFBBF1010F0CBF4FF0110A4FF0120A284600F085FB20465146324643
:4011C000FFF744FF002851D1059F5E46A378E268B44604924FF000081E460FE0012230460DF11F01CDF804C000F0D0FB9DF81F20DDF804C0FE2A05D008F10108049B9845B2
:40120000ECD333E0284639464FF40072664600F0BDFB0222284607A900F0B8FB9DF81C30384601939DF81D80FFF7ECFE4FF6FF729042019B0CD048EA0328404508D0BAF197
:40124000120F13D120460C210022FFF7FFFE0DE0013E02D007F50077B8E7BAF1120F07D120460C213246FFF7F1FE01E04FF0FF36284600F031FB28460121FFF79AFE3EB131
:40128000B9F1000F02D009F1FF397DE74FF0FF36304609B0BDE8F08F8C91FF1F2DE9F04F99464C4B87B0029203EB80039DF840205D68009103926B78002B40F085804B0294
:4012C00001930327009BAC78EE78019A2046022E08BF1A46164600F0FFFA01212046FFF768FEB9F1010F0CBF4FF0180A4FF0190A204600F0E7FA284651463246FFF7A6FEF4
:401300008DF81700002850D120460121FFF751FE029ECB46B8463046FFF774FE0DF11707BAF1180F0CBFFE23FC2301228DF817308DF81500030A394620468DF8143000F041
:4013400033FB204631464FF4007200F02DFB0222204605A900F028FB01222046394600F015FB9DF8173003F01F03052B1CD12846FFF70CFEC0B9039A0AB906F50076BBF1D0
:40138000010BC8D1BAF1190F474611D106A96FF00203204601F8013D012200F005FB2846FFF7F4FD20B100E047464FF0FF3600E00026204600F090FA20460121FFF7F9FD22
:4013C00026B10FB1013F7DE74FF0FF36304607B0BDE8F08F8C91FF1F2DE9F04F877887B0044638460D4600F06DFA20463A210022FFF72CFE064638B1384600F06DFA38462A
:401400000121FFF7D6FD58E00DF1140804224146384600F0BBFA4046FFF71EFD8046384600F05AFA01213846FFF7C3FDB8F1000F28F07F02B8BF4FEA987BD2B240F272638B
:401440004FEA1828B8BF0BF0010B1FFA88F8002A14BF1A460022012111EA080F05D10136F6B24900102E89B2F6D140F27260824233460DD06422724302F5FA6208E011EA5C
:40148000080F07D049000133013689B2DBB2F6B20F2EF4D964214B434FF6FE7103F5FA6302EA01014FF6FC72384603EA020200F049FA10F0FF0F40F099804FF0FF3092E07A
:4014C00028467E217F22FFF7A7FD8246EB78DFF82C8103F0030203F0780308EBD30358F822101B7C3846594389B200F001FA0646002877D06B7803F00702DB1003F00F03E3
:4015000008EB82024344126A93F810800292B8F1000F67D0A978284603911C221A21FFF77BFD0190BAF1000F1FD1502153222846FFF772FD4FF0010909FA00F92F213122AD
:401540002846FFF769FD1FFA89F982463E21284649224FEA5929FFF75FFD0AF1020A09FA0AF9013000FB09F910E0BAF1010F01D0012038E0284630214522FFF74DFD4FEA6A
:401580008029BBF1000F01D00223E37008FB06F2029B0399B2FBF3F2642303FB01225A437343D208DB089A4294BFE260E360FA235E43019BF6089A400C21B24294BF226123
:4015C000266128460D22FFF727FD0546384600F08DF94FF4007128436070A180C4F80890002000E0FF2007B0BDE8F08FE378A778012B3FF465AF4FF0000A67E794280000D0
:40160000F0B5857887B004464FF4C871284600F06FF9B0F5C87F00F2CC804CF25033E3600026284600F058F90A212846FFF7C1FC624B93E8030001902846ADF8081000F01F
:4016400041F9062201A9284600F0AEF92846FFF781FC0746284600F03FF901212846FFF7A8FC17F0010F03D10136052ED9D1A0E0284600F027F9082120464FF4D572FFF75F
:40168000E5FC10F0040F52D0284600F025F9A5784FF4FA66284600F015F9002237212046FFF7D4FC28460121FFF783FC292100222046FFF7CBFC0746284600F00DF9284613
:4016C0000121FFF776FC17B90123E3701EE017F0040F01D1013EDDD14FF4FA66284600F0F1F8012100222046FFF7B0FC0746284600F0F2F828460121FFF75BFC0FB9E7707B
:4017000004E0012F55D1013EE8D152E001AD20462946FFF7E7FC00284BD120462946FFF75BFEC0B2002844D10123237043E00422A07805A900F02AF9284600F0CDF89DF841
:401740001730AA2B35D19DF8163003F00F03012B2FD1A5784FF4FA66284600F0B3F8002237212046FFF772FC28460121FFF721FC29214FF080422046FFF768FC07462846C5
:4017800000F0AAF828460121FFF713FC0FB1013EE2D101AE20463146FFF7A4FC48B90125E57020463146FFF717FEC0B208B9257001E04FF0FF3007B0F0BD00BFD428000094
:4017C00010B5084B03EB80035C6823783BB9FFF7BFFB20B12046BDE81040FFF711BF4FF0FF3010BD8C91FF1F38B51D46154BA1F57B7103EB80035C68072918D8DFE801F0B6
:401800000A17171704041719204600211422FFF7EDFA0CE0237833B92046FFF7F1FE10B14FF0FF3038BDA3882B81A3686B60002038BD2046FFF73CFB024B00201A68013A26
:401840001A6038BD8C91FF1F10B580B9104B1B78EBB901240E4B1C7000F036F921463B2000F04EF900F022F900F012F910BD084B1B7863B90124064B1C7000F025F92146C0
:401880003B2000F03DF900F011F900F001F910BDA091FF1F08B550B9084600F0B5F800F0A7F810F0010FFAD000F0BAF808BD084600F0AAF800F09CF810F0010FFAD000F0F8
:4018C000AFF808BD08B510B900F086F908BD002000F082F908BD00BF08B518B9012000F07BF908BD012000F077F908BD0020704738B5B1F5C87F04D30D46B1F5FA7F03D8C0
:4019000004E04FF4C87501E04FF4FA756C00A4B245F6C053B3FBF4F448B900F0D5F8601E012180B200F0ECF800F0C0F808E000F0CBF8601E012180B200F0E2F800F0B6F829
:40194000284638BD032809D840F6E44399420FD840F6E3439A420DD80020704740F6E443994209D840F6E3439A4207D8002070470020704701207047002070470120704780
:4019800008B5FFF761FF022008BD00BFF8B507460D4614466E1CFF213846FFF77BFF28703546013CF6D1F8BD70B5064614464D1C09783046FFF76EFF2946013CF7D170BD34
:4019C00008B5FFF7A1F9094A137843F0200313700132137843F010031370073A137843F010031370FFF794F908BD00BF9A650040014B1878704700BF6B650040014B187843
:401A0000704700BF64650040034B1B7813F0040FFAD0024B187070476B65004048650040014B1878704700BF5865004008B501E00A4B1B780A4B1B7813F0200FF8D1FFF72F
:401A400063F9084B1A7842F001021A701A7802F0FE021A70FFF75CF908BD00BF58650040646500409865004008B50F22064B1A70FFF7DCFFFFF7BCFFFFF7C0FF0023034AD6
:401A80001370073A137008BD8A6500408B65004008B5054B1B7823B9FFF7E6FF0122024B1A70FFF78DFF08BDA191FF1F054A137843F0010313701032137843F001031370B8
:401AC000704700BFA2430040054A137803F0FE0313701032137803F0FE031370704700BFA2430040014B188880B2704780400040024B187800F00700704700BF82400040FA
:401B000070B505460E46FFF7F3FF0446FFF7EAFFA84256D02B4B1B7803F0010294B900B185B938B9284B1D80284A137803F0BF03137070BD254A137843F040031370224BC2
:401B40001D8070BD22B3002321490B7001240F310C7004310B700C390B7803F07F030B701A4B1B7813F0080F00D08DB9194B18800721013B1970164B1B7813F0010FFAD192
:401B800010490B7803F0FE030B700021104B19700C4B1B7813F0010F0DD00E4B1D800EB1032200E001220A4B1A70094B1B7813F0010FFAD170BD044B1D8002490B7813433D
:401BC0000B7070BDA243004080400040824000400140004002400040044A137803F0EF03000100F0100018431070704710510040014B1868704700BF4881FF1F0E4B70B57A
:401C00001E460E4C0025E41AA410A54204D056F8253098470135F8E700F08EFE084B094C1E46E41AA4100025A54204D056F8253098470135F8E770BD442900004429000005
:401C4000442900004C29000010B5431E0A44914204D011F8014B03F8014FF8E710BD03460244934202D003F8011BFAE7704700000EB400B54FF402719CB0ADF814106FF095
:401C80000041049107914FF6FF711DAB02900690084853F8042BADF81610006802A9019300F064F8029B00221A701CB05DF804EB03B070474881FF1F2DE9F0478E688246D4
:401CC0009E420C46914698463ED88A8912F4906F3AD02568096902236F1A656905EB450595FBF3F57B1C43449D4238BF1D4653050FD5294600F040FB064698B13A462169CC
:401D0000FFF7A2FFA38923F4906343F08003A38113E02A4600F08EFB064670B92169504600F0DEFA0C23CAF80030A3894FF0FF3043F04003A381BDE8F08726613E442660C3
:401D400046466561ED1BA560464528BF464649463246206800F0A8FAA36800209B1BA36023681E442660BDE8F08700002DE9F04F9DB003938B8980461C060D4616460DD5AD
:401D80000B695BB9402100F0F7FA2860286118B90C23C8F80030CDE040236B610023099320238DF82930DFF89CB130238DF82A3037463C4614F8013B1BB9B7EB060910D09A
:401DC00003E0252BF9D02746F3E74B46324629464046FFF771FF013000F0A780099B4B4409933B78002B00F0A08000234FF0FF3204930793059206938DF853301A93012667
:401E0000052221784E4800F041FA671C049B38B14B4A3C46801A06FA00F018430490EFE7D90644BF20228DF853201A0744BF2B228DF8532022782A2A03D0079A00210A207E
:401E40000BE0039A111D12680391002A10DA524243F00200079204900BE027463B780134303B092B03D800FB02320121F5E701B107923B782E2B1ED17B782A2B0AD1039BA6
:401E800002371A1D1B680392002BB8BF4FF0FF33059310E0002319460593781C0A2407463A780130303A092A03D804FB01210123F5E703B1059103223978224800F0E6F901
:401EC00040B14023CBEB000003FA00F0049B013718430490397806221B487E1C8DF8281000F0D4F988B1194B33B9039B073323F007030833039314E003AB00932A46144B82
:401F000004A94046AFF3008007E003AB00932A460F4B04A9404600F093F8B0F1FF3F824603D0099B5344099342E7AB895B0601D4099801E04FF0FF301DB0BDE8F08F00BF28
:401F400002290000082900000C29000000000000B91C00002DE9F04791461F460A698B6806469342B8BF1346C9F8003091F843200C46DDF8208012B10133C9F80030236804
:401F8000990642BFD9F800300233C9F80030256815F0060510D104F1190A07E00123524639463046C04701301AD00135E368D9F800209B1A9D42F1DB94F84330226800337C
:401FC00018BF012392060FD5E118302081F843005A1C94F845102244023382F8431003E04FF0FF30BDE8F08704F1430239463046C0470130F4D02268D9F80050E36802F026
:402000000602042A08BF5D1B2269A3680CBF25EAE57500259342C4BF9B1AED184FF000091A344D4509D00123224639463046C0470130D5D009F10109F3E70020BDE8F087B1
:402040002DE9F04317460A7E85B06E2A984606460C460C9B01F1430E00F0AE8011D8632A22D009D8002A00F0BB80582A40F0CA8081F84520834955E0642A1ED0692A1CD06D
:40208000C0E0732A00F0B08009D86F2A2ED0702A40F0B8800A6842F020020A603EE0752A24D0782A3AD0ADE01A6801F14205111D1960136884F84230A8E021681A6811F0D0
:4020C000800F02D0111D196008E011F0400F02F10401196002D0B2F9003000E01368002B3CDA2D225B4284F8432037E021681A6811F0800F02D0111D196007E011F0400FB9
:4021000002F10401196001D0138800E01368227E5C496F2A14BF0A2208221BE078225A4984F845202268186812F0800F00F104051D6003D1550601D5038800E00368D00783
:4021400044BF42F0200222601BB9226822F0200222601022002084F8430001E049490A226568002DA56008DB206820F0040020602BB9002D7DD175460CE0002B79D075468F
:40218000B3FBF2F002FB1033CB5C05F8013D03460028F5D1082A0BD12368DA0708D5236962689A42DEBF302305F8013C05F1FF35C5EB0E0323612EE008681A6810F0800F05
:4021C000496903D0101D1860136808E010F0400F02F104001860136801D0198000E0196000232361754616E01A68111D1960156800216268284600F049F808B1401B6060FA
:40220000636804E004F1420584F8422001232361002384F84330CDF800803B4603AA21463046FFF797FE013002D14FF0FF3026E023692A4639463046C0470130F5D023684F
:402240009B0710D5002504F1190907E001234A4639463046C0470130E7D00135E368039A9B1A9D42F2DBE068039B9842B8BF184605E00B7804F1420584F842308AE705B050
:40228000BDE8F083132900002429000010B5C9B202449042034605D01C7801308C42F8D1184610BD002010BD884210B501EB020301D8421E0BE09842FBD28118D21AD342AE
:4022C00004D013F8014D01F8014DF8E710BD994204D011F8014B02F8014FF8E710BD000038B50546002944D051F8043C0C1F002BB8BFE41800F0D4F81E4A1368114613B93B
:402300006360146030E0A3420DD92268A018834201BF18685B681218226063600C6023E0A24203D813465A68002AF9D118681918A1420BD12168014458188242196013D106
:4023400010685268014419605A600DE002D90C232B6009E021686018824201BF106852680918216062605C602846BDE8384000F098B838BDA891FF1F70B5CD1C25F003052F
:4023800008350C2D38BF0C25002D064601DBA94202D90C23336046E000F082F8234B1C681A462146A1B10B685B1B0ED40B2B03D90B60CC18CD501EE08C420BBF63684B68AA
:4023C0001360636018BF0C4615E00C464968E9E7174C23681BB9304600F052F820602946304600F04DF8431C18D0C41C24F00304A0420DD12560304600F053F804F10B0072
:40240000231D20F00700C31A0ED05A42E25070BD211A304600F034F80130EBD10C233360304600F03EF8002070BD00BFA891FF1FA491FF1FF8B5074615460E4621B91146E7
:40244000BDE8F840FFF798BF1AB9FFF749FF2846F8BD00F027F885420ED929463846FFF78BFF044650B131462A46FFF7EDFB31463846FFF735FF01E03046F8BD2046F8BD7E
:4024800038B5064C0023054608462360FEF78EF8431C02D1236803B12B6038BDC492FF1F7047704751F8040C0028BEBF091851F8043CC0180438704700000000610000007C
:4024C0006461746F732E747874000000536920657363726962696F004E6F20657363726962696F007200000043426C7565746F6F746800002A2E6B776C0000000D000000BC
:40250000636C6561725F70616E656C28290000007365745F677269645F73697A652831372C313029000000006164645F7465787428302C322C6D656469756D2C4C2C6D75ED
:402540006573747261732C3234352C3234302C3234352C29000000006164645F7465787428302C312C6D656469756D2C4C2C7469656D706F2C3234352C3234302C323435F3
:402580002C2900006164645F7465787428302C332C6D656469756D2C4C2C73746172742C3235352C3235352C3235352C290000006164645F7465787428382C302C786C611C
:4025C0007267652C4C2C70726F796563746F20426C7565746F6F74682C302C3235352C302C2900006164645F627574746F6E2831362C312C32312C312C3429006164645FCC
:40260000627574746F6E2831362C322C32322C322C3529006164645F627574746F6E2831362C332C32332C332C3629006164645F627574746F6E2831362C342C372C4F2CEF
:402640006F2900006164645F627574746F6E28382C362C31342C722C290000006164645F627574746F6E2831342C362C31352C592C2900006164645F627574746F6E28325B
:402680002C362C31362C472C290000006164645F627574746F6E28322C332C31372C422C290000006164645F726F6C6C5F67726170682831322C372C352C302E302C3130E1
:4026C000302E302C3130302C742C766F6C74616A652C582D417869732C592D417869732C302C302C312C302C302C312C6D656469756D2C6E6F6E652C312C312C34322C39DD
:40270000372C3232322900006164645F726F6C6C5F677261706828362C372C352C31302E302C34302E302C3130302C472C74656D70657261747572612C582D417869732C52
:40274000592D417869732C302C302C312C302C302C312C6D656469756D2C6E6F6E652C312C312C34322C3235352C3029000000006164645F726F6C6C5F67726170682830E8
:402780002C372C352C302E302C3130302E302C3130302C762C76656C6F6369646164206D6F746F722C582D417869732C592D417869732C312C302C312C302C312C312C6DA7
:4027C000656469756D2C6E6F6E652C312C312C3235352C302C3029006164645F6D6F6E69746F7228372C312C382C2C31290000006164645F73656E645F626F7828322C3193
:402800002C332C2C6D2C29006164645F73656E645F626F7828322C322C332C2C542C29007365745F70616E656C5F6E6F746573282C2C2C290000000072756E28290000006F
:402840002A0000002A4725642C25642A00000000205100401000405100403000F0510040100000000140001000140140000480180140800300400140000A004C01400002E2
:4028800000500140200000000018014020060048800000000A00000064000000E803000010270000000A0C0D0F14191E23282D32373C41508096980040420F00A0860100FF
:4028C00010270000E8030000640000000A000000010000004000000000950000490F0000D90F00006D1100009D120000E9170000C1170000510F00003D0F00006D6D630044
:402900004300232D302B2000686C4C006566674546470030313233343536373839414243444546003031323334353637383961626364656600000000F8B500BFF8BC08BC7D
:402940009E4670474D00000029060000F8B500BFF8BC08BC9E4670472900000070290000C880FF1F88000000781100000000000000000000F4010000C892FF1F0000E02E0D
:40298000C05D00001800000000366E01350F0000000000000000000000000000000000000000000000000000000000000000000000290000000000000000000000000000D0
:4029C000000000000000000000000000000000000000000000000000000000000000000000000000000000000000000000000000E880FF1F00000000000000000000000051
:402A00000000000000000000000000000000000000000000000000000000000000000000000000000000000000000000000000000000000000000000000000000000000096
:402A40000000000000000000000000000000000000000000000000000000000000000000000000000000000000000000000000000000000000000000000000000000000056
:402A80000000000000000000000000000000000000000000000000000000000000000000000000000000000000000000000000000000000000000000000000000000000016
:402AC00000000000000000000000000000000000000000000000000000000000000000000000000000000000000000000000000000000000000000000000000000000000D6
:020000040003F7
:0200000480007A
:400000000452004001640040036500404F060140330701400109014058140140511501405A1601404D1701400E1801403A190140421A01404C1B014003400140024101408F
:40004000024201400343014002460140014701400348014009490140084C0140034D014005500140015101400820096018021C01870F863888728A0F001804FF08DC0A211B
:400080000EC310441408170718E719071A181C1C1EE21F02201021012504260428802CC03020310734D8361F38023AA03F01580459045C015F01800688068A098C0490077D
:4000C0009208931294099606970C980F9B019D019F02A104A303A508A703A802AE09B007B20EB30FB510BA08C036C105C50CC60BC70EC815C9FFCAFFCBFFCEF0CF44D00C88
:40010000D401D804D904DA04DB04DC01DD11DF01E6C0EA40EB02001001800240041806410A080BA00D010E060F1011801201131014021680171418301B011D011E061F5025
:4001400021082218248028A02B202C802F203080310A3210348036184104482849405280530859085A9265806680C0FBC2FEC4F3CAC3CC7FD002D20CD60FEE04EE04001421
:400180000409053106D007060A030C0C0D2C0E710F0310DC122217131B0C1C101E401F08241026AC2A202D312F0E310F341F36E0373039803A803B0A3F404005460449FFFF
:4001C0004A074BFF4C404D204EF04F0550085440580459045A045B045C115D015F01604061A862406320810783188401870388018D7C9303940C9503980199529B249C010C
:40020000A002A208A303A404A529A602A7C4A802A97CAA04AD03B11CB20EB360B401B580B703B808BE10D804D904DC10DF0101A002A004200608072009820C800E261008C0
:40024000110414A419E01D101E20204221022204232025012602271629402C802D102E802F1030083180322037193840390C3C803D023E0848015008518061246240808073
:400280008205842085018680873088518A408D24902091189204944095029608972098049B099CF19D709E059F16A040A2A1A408A612A980AC44B084B510C06FC2E9C476EE
:4002C000CAF8CCEECEDAD208D80EE205E609EA060201080209010D0113021B041E042101260427042E01300432013306340237013E153F04403441064205440246C047E01A
:40030000482849FF4AFF4BFF4C624DA04EF04F41500C54185604580459045A045B045C105D115F016640670269106A306B106D106E106F1284028533860D870C88108B088F
:400340008C0D8D0A8F34900D9421954096029715982299039A089B149C229E04A00DA40DA80DAD33AF04B210B30FB40FB560B620B710B920BA20BB08BE44BF40D804D90449
:40038000DC10DF0102010328052108A50F02105012041622180219081B201C081F05211422602540272129402F503028340236023710384039283C803D1047294C044D406B
:4003C0004E0456225E045F0A674A79407B0185108640874089028B408C01902092049408950A968899019CA29DC89E409F14A020A281A309A488A542A610A820AA10AE0187
:40040000AF18B440C057C28FC4AECAC8CCA6CE3ED0E0D230D680D8B0E208E608EA08840486038E0898359A029C039E2CA401A61EB038B407BA20D804DF0100400320040437
:40044000074809A00D010E1912201401151016121711184019101B201F102622274C2C012D102E012F10362437813C843D013E1045A047084C014D214F04561157485D40D2
:400480006C206E206F027490762086308A108B028F01A410AC10C075C2F3C4F4CAF0CCF0CEF0D070D230D610E040E6A0EC10050109010D020F0113011501170219021B01F1
:4004C0001D012101250335033B205602572459045B045F01804681C1844285C1887789C08A088C468D109104950796469718980199019A5E9C399DC19E06A004A108A220E8
:40050000A321A442A522A604A708AB80AC46AD01AFC0B008B13FB470B580B60FB740B880B902BA30BE01BF51D409D804D904DB04DF01040407490E19150916021C401DA02B
:400540001E091F6020042220240B27802A022B202E612F28322033453622374839183B803E163F805C415F14611067026840691A6A546B5172028180821083108501873016
:4005800089018A228B018C048E019101930694069502961199109A019B0C9E029F91A202A348A440A5A0A604A8C0AC20B308B560C0F0C2E0C4B0CAF3CCFFCEFED6F0D8146A
:4005C000E2B0E6E0E840EC04EE8033203640CC30A640A720A640A720A640AB20EE201B04C608AB048640A640E640022057088620A308AF08C010D440E440EE400D80610222
:400600006602A102B502C201D803EC08AA02B580EA0800030A0310031A031C03000F000000086000800400001F00200C000C0000C00C0200C000080F7F0180020010FF002C
:400640009001400E00109F00C0040408C00C010000100000FF0F000000020000000010001203500006CEBBFD3FFFFFFF2200F00804000000000002100404040400100001A1
:400680000000C00040011011C001001140014001000000000000000000000000000000000000000000008000007F7F0000000000807B7B0060000000020001020200020067
:4006C00000000000130018010000000000000000000000000000000000000000000000000000000000000000000000000000000000000000000000000000000000000000CE
:4007000000000000000000000000000000000000000000000000000000000000000000000000000000000000000000000000000000000000000000000000000000000000B9
:400740000000000000000000000000000000000000000000000000000000000000000000000000000000000000000000000000000000000000000000000000000000000079
:400780000000000000000000000000000000000000000000000000000000000000000000000000000000000000000000000000000000000000000000000000000000000039
:4007C00000000000000000000000000000000000000000000000000000000000000000000000000000000000000000000000000000000000000000000000000000000000F9
:0200000490006A
:0400000000004005B7
:0200000490105A
:04000000BC90ACAF55
:0200000490303A
:020000009C2240
:0200000490402A
:4000000000000000000000000000000000000000000000000000000000000000000000000000000000000000000000000000000000000000000000000000000000000000C0
:400040000000000000000000000000000000000000000000000000000000000000000000000000000000000000000000000000000000000000000000000000000000000080
:400080000000000000000000000000000000000000000000000000000000000000000000000000000000000000000000000000000000000000000000000000000000000040
:4000C0000000000000000000000000000000000000000000000000000000000000000000000000000000000000000000000000000000000000000000000000000000000000
:0200000490501A
:0C00000000012E16106900012E27AC8BA9
:00000001FF